:100000000C946B040C9488040C9488040C9488045D
:100010000C9488040C9488040C9488040C94880430
:100020000C9488040C9488040C94200E0C94E40D19
:100030000C94D6130C9488040C9488040C948804B3
:100040000C9488040C9488040C9488040C94880400
:100050000C9488040C94F70E0C9488040C94880477
:100060000C9488040C9488040C9488040C948804E0
:100070000C9488040C9488040C9488040C948804D0
:100080000C9488040C9488040C9488040C948804C0
:100090000C9488040C9488040C9488040C948804B0
:1000A0000C9488040C9488040C94880480818283C6
:1000B0008485868788898A8B8C8D8E8F9091929388
:1000C00094A0A1A2A3A4A5A6A7A8A9AAABACADAED3
:1000D000AFB0B1B2B3B4C0C1C2C3C4C5C6C7C8C94A
:1000E000CACBCCCDCECFD0D1D2D3D40029003500CD
:1000F0002B003900E100E00011000D001800240081
:1001000040003A001E00140004006400E2001000E9
:100110000E000C00250041003B001F001A001600D5
:100120001D00E30036000F001200260042003C00D4
:100130002000080007001B002C00370033001300CC
:10014000270043003D002100150009000600500073
:10015000380034002F002D0044003E00220017001C
:100160000A00190051005200320030002E004500F4
:100170003F0023001C000B0005004F00E600280094
:100180002A004C00460001000100010001000100AE
:1001900001000100010001000100D2000100010086
:1001A0000100010001000100010001000100010047
:1001B0000100010001000100010001000100010037
:1001C0000100010001000100010001000100010027
:1001D0000100010001000100010001000100010017
:1001E0000100010001000100010001000100010007
:1001F00001000100010001000100010001000100F7
:1002000001000100010001000100D1000100010016
:1002100001000100010001000100010001000100D6
:1002200000DA0281FFD9F1DB20A4A62EAF00A0C026
:10023000D30000A1C8D30000AED580A81F408D1404
:1002400020002E002E005374617274696E67207551
:10025000702E00496E76616C6964207061737377EB
:100260006F72642E2054727920616761696E00504C
:10027000617373776F726420736574207375636341
:1002800065737366756C6C792100536574206E65B7
:10029000772070617373776F72643A2000456E74D3
:1002A00065722070617373776F72643A20004F70CB
:1002B000656E206861726477617265206C6170742C
:1002C0006F700000AF00AE05010906A10105071916
:1002D000E029E71500250195087501810295017552
:1002E0000881010507190029FF150026FF00950662
:1002F00075088100050819012905150025019505D6
:1003000075019102950175039101C0090222000156
:100310000100A0FA090400000103010100092111F4
:1003200001000122440007058103080001120100B9
:100330000200000008EDFEFEBA0300010200013ACF
:1003400003420061006C007400680061007A006183
:1003500000720020006B006500790062006F006190
:10036000007200640020007600650072007300696E
:10037000006F006E002000330000001403420041B3
:10038000004C005400480041005A00410052000057
:10039000000403090407087F0807003E5B4F5B3E2B
:1003A000003E6B4F6B3E001C3E7C3E1C00183C7EAA
:1003B0003C18001C577D571C001C5E7F5E1C000013
:1003C000183C180000FFE7C3E7FF000018241800DE
:1003D00000FFE7DBE7FF0030483A060E00262979E8
:1003E000292600407F05050700407F05253F005A6C
:1003F0003CE73C5A007F3E1C1C0800081C1C3E7F4A
:100400000014227F2214005F5F005F5F0006097FF7
:10041000017F00006689956A0060606060600094FA
:10042000A2FFA2940008047E04080010207E201081
:100430000008082A1C0800081C2A0808001E1010C2
:100440001010000C1E0C1E0C0030383E3830000618
:100450000E3E0E060000000000000000005F0000DD
:1004600000000700070000147F147F1400242A7F77
:100470002A120023130864620036495620500000F7
:100480000807030000001C224100000041221C005C
:10049000002A1C7F1C2A0008083E08080000807003
:1004A0003000000808080808000000606000002014
:1004B00010080402003E5149453E0000427F4000C2
:1004C000007249494946002141494D330018141230
:1004D0007F10002745454539003C4A4949310041D4
:1004E0002111090700364949493600464949291E64
:1004F0000000001400000000403400000000081458
:1005000022410014141414140000412214080002A3
:1005100001590906003E415D594E007C1211127CC2
:10052000007F49494936003E41414122007F414117
:10053000413E007F49494941007F09090901003EC8
:1005400041415173007F0808087F0000417F41004E
:10055000002040413F01007F08142241007F4040BD
:100560004040007F021C027F007F0408107F003E95
:100570004141413E007F09090906003E4151215E8B
:10058000007F091929460026494949320003017FA5
:100590000103003F4040403F001F2040201F003F1C
:1005A0004038403F006314081463000304780403D8
:1005B000006159494D4300007F4141410002040858
:1005C000102000004141417F00040201020400406C
:1005D0004040404000000307080000205454784089
:1005E000007F2844443800384444442800384444B8
:1005F000287F0038545454180000087E090200185F
:10060000A4A49C78007F080404780000447D400086
:10061000002040403D00007F102844000000417F42
:100620004000007C04780478007C080404780038DA
:100630004444443800FC182424180018242418FCCE
:10064000007C080404080048545454240004043F67
:100650004424003C4040207C001C2040201C003CE6
:100660004030403C004428102844004C9090907C3E
:10067000004464544C4400000836410000000077F8
:100680000000000041360800000201020402003CA4
:100690002623263C0000000000000000307848D8E7
:1006A000F0E08486FFFF8684C0F0D84878300000F0
:1006B000000000000000E0F0F030303070E0C000DA
:1006C000000000C0F0F0F0C000000000E0F0E0002A
:1006D0000000303030F0F0F030303000F0F000004A
:1006E00000000000F0F00000000000E0F0F0E0800A
:1006F0000000003030303030F0F07000000000E0DA
:10070000F0F0E00000000000F0F030303030E0E0C9
:1007100080000000C0F0F8FC3E1E06010000007FD3
:100720004141417F007F4141417F000080C0E07E28
:100730005B4F5BFEC00000C000DCD7DEDEDED7DC36
:1007400000C00000000000000000000000000000E9
:10075000000000000000000000081C3E0808088897
:10076000FFFFC9C9FFFFC9C9FFFF880808083E1C71
:10077000080000000000FFFFFF0C0C0C1EFFF10042
:1007800000E0FE7F6360677FFCE00000FFFFFF008A
:100790000000000000FFFFFF00000000FFFF0C0C46
:1007A0000C0C0C0CFFFF0000C0F8FF6F61616FFFC5
:1007B000F8C00080E0F03C0F07010000C0F8FF6FB8
:1007C00060616FFFF8C00000FFFF0C083CFCEF8782
:1007D00003000000030F1F3F3C7870600000007FA3
:1007E0004141417F007F4141417F00307B7F783034
:1007F000202030787F3B0003000F7F0F0F0F7F0F0B
:1008000000030000000000000000000000000000E5
:10081000000000000000000000000000060F090DAD
:10082000070110307F7F301001070D090F0600000F
:100830000000000000000307070606020303010092
:10084000030701000000000003070200030707067A
:100850000606060000030703000000000303000073
:100860000000000003030000070300000000000078
:100870000307020307070606060602020703000035
:10088000000000000307000003030000000003074E
:100890000200000000000000000000000000000056
:1008A0000000000000000000000000000000000048
:1008B0000000000000000000000000000000000038
:1008C0000000000000000000000000000000000028
:1008D00000000000000011241FBECFEFDAE0DEBFF1
:1008E000CDBF11E0A0E0B1E0ECE8F3E302C0059079
:1008F0000D92AC32B107D9F723E0ACE2B1E001C010
:100900001D92A73FB207E1F70E94FF130C94C41990
:100910000C940000982F9093E900562F40E022E0BD
:10092000891731F05091EC002091ED004091F000DA
:1009300021FD07C09F5F973071F78093E90081E048
:1009400008953091EB003E7F3093EB003091ED0045
:100950003D7F3093ED003091EB0031603093EB0040
:100960005093EC002093ED004093F0002091EE00B6
:1009700027FDE0CF80E00895E8EDF0E080818E7FF4
:1009800080831092E2001092DA001092E100A0EE53
:10099000B0E08C9181608C9380818F77808319BCCB
:1009A000A7EDB0E08C918E7F8C9380818F7E8083C9
:1009B0001092D2010895B0E0A0E0E1EEF4E00C94D2
:1009C0001D19C8EDD0E088818F7E8883E7EDF0E0C7
:1009D00080818160808384E082BF81E08093D20146
:1009E00088818E7F888302EE10E0F80110821092D9
:1009F000DA0081EEC82ED12CF601108288818F7723
:100A0000888388818068888388818F7D888319BCEA
:100A10001092E8011092DF011092DE011092DD01C8
:100A200090EEE92EF12CF70180818B7F8083888105
:100A30008160888360E080E00E948A04F601808102
:100A40008E7F8083F80180818160808380818860CF
:100A50008083F70180818E7F808388818061888395
:100A6000CDB7DEB7E8E00C9439192091E40030915D
:100A7000E50085E69091EC0090FF06C09091E800BB
:100A800090FF06C080E008959091E80092FDFACFB3
:100A90009091E801992391F0953091F09091EB00BD
:100AA00095FD10C04091E4005091E50024173507F2
:100AB00009F381509A01F1F684E0089582E00895E7
:100AC00083E0089581E008958091E00187FF13C0DD
:100AD0008091E80082FF06C08091E8008B778093C8
:100AE000E80004C08091E8018111F2CF089580915F
:100AF000E8018823D9F38091E80080FFF8CF809146
:100B0000E8008E77ECCFFC018091E6019091E7013F
:100B100086179707A0F06115710529F49091E800F8
:100B20009E779093E80090E06115710551F4911162
:100B300008C08091E80082FF35C080E00895BC01C4
:100B4000F2CF8091E8018823C9F18530C9F1809105
:100B5000E80083FD31C08091E80082FDEACF8091FA
:100B6000E80080FFE1CF2091F3008091F200322F66
:100B7000282F6115710519F02830310558F091E0E2
:100B80002830310509F090E02091E8002E7720937D
:100B9000E800CACF81918093F100615071092F5F05
:100BA0003F4FE7CF8091E801882341F0853041F045
:100BB0008091E80083FFBDCF81E0089582E0089531
:100BC00083E008950895089508958091D4010895CB
:100BD0002FB7F8946091CE017091CF018091D00130
:100BE0009091D1012FBF08959C01FC0132969FEF97
:100BF00080E04191461751F09F3F19F4411101C027
:100C0000982F8F5F8630A9F79F3F09F40895290F29
:100C1000311D97FD3A95F90162830895E091CB016A
:100C2000F091CC01309729F00190F081E02D0995E9
:100C3000089580E0089580E00895F894E82FE29503
:100C4000EF70F0E031A1282F2F7081E090E001C01B
:100C5000880F2A95EAF7982F9095932391A392A154
:100C6000892B82A3789408959091800192FF10C0FF
:100C700041E0282F2471243009F040E031E0282F92
:100C80002871283009F030E0431711F02CE082275A
:100C900093FF10C041E0282F2471243109F040E077
:100CA00031E0282F2871283109F030E0431711F086
:100CB0002CE082273091810130FF10C051E0282FB5
:100CC0002171213009F050E041E0282F28712830AF
:100CD00009F040E0541711F029E0822731FF10C0DD
:100CE00041E0282F2171213109F040E031E0282F27
:100CF0002871283109F030E0431711F029E08227EC
:100D000094FD877E089582389105B9F1B0F481335E
:100D1000910509F47DC048F48932910509F46DC04C
:100D20008A32910509F479C008958533910509F453
:100D30005FC08933910509F10895833E9105D9F18A
:100D400038F4803E910529F1823E910579F10895AC
:100D5000863E9105D9F1873E910509F43EC0843E57
:100D6000910541F52091810121FF24C080918001EE
:100D700084FD19C087EE90E00895209180012370D2
:100D800009F056C02091810123FF14C089E290E050
:100D900008952091800120FD38C03091810130FFFD
:100DA00009C024FF3FC090E080E0089520918001B9
:100DB00022FDF7CF08952091800122FD36C03091A9
:100DC000810130FD35C024FDEECFF4CF20918001AC
:100DD00023FFF0CF24FDE7CFCDCF2091800123FD6D
:100DE0002AC03091810131FFEECF84EE90E008956A
:100DF0002091800125FDCACF08952091800125FD15
:100E00001DC02091810123FFD5CF89E390E0089593
:100E10002091800126FD15C008952091800126FDB6
:100E200013C0089583EE90E0089582EE90E0089557
:100E300080EE90E0089586EE90E0089585E390E0DE
:100E400008958AE290E0089581E390E0B3CF77308F
:100E5000B8F46B30A8F48230B0F4E62FF0E09BE0F9
:100E6000799FE00DF11D11249DE4899FE00DF11D96
:100E70001124EE0FFF1FE451FF4F859194910895C7
:100E800080E090E0089581E0FCCF0F931F93CF9313
:100E9000DF930E948306EC01811522E59207D8F5C5
:100EA000C11580E5D80708F0B9C0C83ED105C8F41F
:100EB000C03ED10580F4C53AD10548F4C430D1050F
:100EC00050F4C130D10539F0D0E0C0E004C0CD3CD1
:100ED000D105D0F3D065CE01DF91CF911F910F9155
:100EE0000895C11521E0D20778F38E011127C115AD
:100EF00080E2D80708F0AAC08D2F0E943406C82FC0
:100F0000C8010E948306D0E0DC2FCC27CC27DF71FC
:100F1000C82BD92BE0CF80369245F0F4C03482E55F
:100F2000D80708F05BC0C03222E5D20708F04FC0F6
:100F30002C2F2695269580E2289F900111248C2F36
:100F40008370C1E0D0E002C0CC0FDD1F8A95E2F7CC
:100F5000C22BD32BDD68BFCFC03C82E5D807E0F4BD
:100F6000C03A22E5D20708F04EC0C03882E5D80763
:100F700008F0AACF2C2F237081E090E002C0880FE8
:100F8000991F2A95E2F79A68C695C695C77020E220
:100F9000C29FE0011124BCCFC03E22E5D20708F079
:100FA00093CF9E0143E0220F331F4A95E1F7207E45
:100FB0003327CE0183709927C1E0D0E002C0CC0F67
:100FC000DD1F8A95E2F7C22BD32BDA6884CFCF716D
:100FD000D0E0DC2FCC27C16FD06A7DCF2C2F269597
:100FE0002695277080E2289F900111248C2F837012
:100FF000C1E0D0E002C0CC0FDD1F8A95E2F7DC68CB
:10100000C22BD32B68CF8C2F8F710E943406C82F30
:10101000D0E0DC2FCC27CC27DF715DCF8C2F8F71F8
:101020000E94340695E0D695C7959A95E1F7CF7062
:10103000D0E0DC2FCC27282F30E084FF05C084E0EF
:10104000220F331F8A95E1F7D069DACFC8010E94D9
:101050008306EC0140CFB0E0A0E0E1E3F8E00C94BF
:101060001C197C0100917E0110917F0180917C010F
:1010700090917D01082B192BCFE0D0E0CC24C394B4
:10108000D12CBC2EC6010C2E02C0880F991F0A94C9
:10109000E2F780239123892B49F4219790F7B12C13
:1010A0008B2DCDB7DEB7E9E00C943819B7018C2F42
:1010B0000E9427070E944507019779F3F1CF9730E7
:1010C00078F58B3068F5E82FF0E08BE0989FE00D25
:1010D000F11D11249E2F977083E0F695E7958A9570
:1010E000E1F7EE0FFF1FEE0FFF1FE95CFE4F50E030
:1010F00040E080E0219130E0092E02C0369527952E
:101100000A94E2F721703327042E01C0220F0A94BB
:10111000EAF7822B4F5F5F4F4430510559F708952E
:1011200080E00895973098F58B3088F5E82FF0E04F
:101130008BE0989FE00DF11D11248E2F877041E008
:1011400001C0440F8A95EAF783E0F695E7958A9502
:10115000E1F7EE0FFF1FEE0FFF1FE95CFE4F30E0DF
:1011600020E070E05191DF011197CB01022E02C007
:10117000969587950A94E2F7817081958527842357
:1011800085278C932F5F3F4F2430310559F7089501
:1011900090937F0180937E01089521E030E002C0AA
:1011A000220F331F8A95E2F72095309580917E01BA
:1011B00090917F01822393230E94C808089521E023
:1011C00030E002C0220F331F8A95E2F780917E0142
:1011D00090917F01822B932B0E94C80808959093D1
:1011E0007D0180937C010895A6E0B0E0EAEFF8E08D
:1011F0000C94221949835A8349815A819923A1F079
:10120000222391F0CA010E942B08182F682F898190
:101210009A810E94920869817A81812F0E94270712
:101220002696E3E00C943E19CA010E945F08182F2D
:10123000F2CFCF93DF93C091F503D091F6038A30BC
:10124000C1F42091EC01CE018F5E9140622F70E0DD
:101250000E94FF18281B822F66E00E94A519C82F44
:10126000C15018F4DF91CF91089580E20E941909CE
:10127000F7CF8D30E9F4CF5ED1402091EC01622FA1
:1012800070E0CE010E94FF18281B822F9E01280FBC
:10129000311D2115324018F080E0D0E0C0E0C80FC9
:1012A000D11DC151DE4FD093F603C093F503DACFC1
:1012B00096E0FE01AFEEB3E001900D929A95E1F752
:1012C000803E08F459C086E0FE0111928A95E9F744
:1012D000C091F503D091F60346E050E0BE018FEED9
:1012E00093E00E94B719892B59F1CE018F5E91408E
:1012F0009C0145E0369527954A95E1F741E050E09D
:10130000BA0102C0660F771F2A95E2F79B01609130
:10131000ED017091EE01262B372B059665E0969531
:1013200087956A95E1F7FA0102C0EE0FFF1F8A95D3
:10133000E2F7CF01822B932B9093EE018093ED0186
:101340009E01295E31404091EC01642F70E0C9019B
:101350000E94FF18481B463010F4240F311D211540
:10136000F2E03F0710F030E020E021513E4F309393
:10137000F6032093F50376CFF6E08F9FB00111249A
:101380006B567C4F46E050E0CE010E944A19A0CF38
:10139000CF93DF93EC01FE018491811103C0DF91B3
:1013A000CF9108950E9419092196F5CF8CEA90E01B
:1013B0000E94C80908958091600190915F01892B76
:1013C00080932E0148E050E061E671E08EE291E00A
:1013D0000E94B719892BA9F088E0EEE2F1E0A1E6BE
:1013E000B1E001900D928A95E1F7E091CB01F09187
:1013F000CC01309731F00280F381E02D8EE291E054
:101400000995089510926001E0E3F1E086E0DF01C4
:101410001D928A95E9F710925F010E94DB090895F9
:10142000AAE2B0E0E6E1FAE00C942219E0EEF1E085
:101430008091F100819321E0E83EF207C9F78091A5
:10144000E101833009F47DC008F5813009F454C00E
:10145000823009F4BEC08091E80083FFF8C080911B
:10146000E0019091E1019A3008F0F1C0E92FF0E03D
:10147000E45CF54F0C94B119FA0A200B270B200BF2
:10148000270B780B9A0B270B860C930C8A3009F4E8
:101490008FC08B3009F472C08930E9F68091E00189
:1014A0008132C9F68091E4019091E501892B99F68A
:1014B0008091E800877F8093E8008091E80082FFB8
:1014C0003BC08091F3009091F200892798278927EB
:1014D000029731F48091F100813011F0863021F4CF
:1014E0008091F1008093D4018091E8008B77809304
:1014F000E8000E946405AFCF8091E001813A09F0D5
:10150000AACF8091E800877F8093E8008091E40172
:101510009091E501892B61F060E090E080E070E05F
:101520000E9483058091E8008B778093E80093CF39
:1015300068E085ED91E0F3CF8091E8018111BDCFA6
:101540008ACF8091E001813A09F085CF8091E40152
:101550009091E501892B09F07ECF8091E800877F8B
:101560008093E8008091E80080FFFCCF809111011A
:101570008093F1008091E8008E77B9CF8091E001EF
:10158000813209F068CF8091E4019091E501892BC7
:1015900009F061CF8091E800877F8093E8000E9486
:1015A00064058091E201809311010E94020A53CFE9
:1015B0008091E001813209F04ECF8091E800877F71
:1015C0008093E8000E9464058091E3018093D30139
:1015D00042CF8091E001813A09F03DCF8091E8004F
:1015E000877F8093E8008091E80080FFFCCF8091A6
:1015F000D301BECF803889F0823849F58091E4016B
:101600008F70873020F58093E9008091EB0085FB97
:10161000882780F91092E90006C08091DD01909141
:10162000DE01911182609091E800977F9093E8002D
:101630008093F1001092F1008091E8008E7727C02E
:10164000282F2D7F21F48823A1F0823029F1809169
:10165000E80083FF0AC08091E800877F8093E8005C
:101660008091EB0080628093EB00AA96E3E00C94FB
:101670003E198091E201813051F7933009F080E00A
:101680008093DE011092E9008091E800877F8093CB
:10169000E8000E946405DBCF8091E2018111F2CF66
:1016A0008091E4018F702FEF280F263080F6809311
:1016B000E9002091EB0020FFE5CF933031F48091D9
:1016C000EB0080628093EB00DDCF9091EB009061A6
:1016D0009093EB0021E030E001C0220F8A95EAF7F9
:1016E0002093EA001092EA008091EB008860EACF34
:1016F0008111ADCF1091E2011F778091E3008078D6
:10170000812B8093E3008091E800877F8093E8003D
:101710000E9464058091E80080FFFCCF8091E30087
:1017200080688093E30083E0111101C082E0809320
:10173000E8018DCF8058823008F089CF8091E20196
:101740009091E3018C3D23E09207A1F583E08A8329
:101750008AE289834FB7F894DE01139620E03EE0D9
:1017600051E2E32FF0E050935700E49120FF03C0D3
:10177000E295EF703F5FEF708E2F90E0EA30C0F09F
:10178000C7968D939D932F5F243159F74FBF80915A
:10179000E800877F8093E8006AE270E0CE0101965E
:1017A0000E9483058091E8008B778093E8004FCFFB
:1017B000C096E7CF4091E4015091E501292F3327EE
:1017C0002330310509F43FC078F52130310509F4A3
:1017D00065C082E290E0EBE0F3E02230310509F0F1
:1017E00036CF2091E800277F2093E8002091E60182
:1017F0003091E7018217930708F49C0140E021151E
:10180000310509F050C041114EC08091E80082FDC1
:10181000C9CF8091E801882329F2853019F280919F
:10182000E80083FFF2CFBECF2132310579F12232B9
:10183000310509F00CCF452B09F009CF84E490E085
:10184000E7ECF2E0CECF992781309105B9F058F05E
:10185000029709F0FCCEEFE3F3E0E4918E2F90E0E5
:10186000EFE3F3E007C0E1E9F3E0E4918E2F90E0CD
:10187000E1E9F3E0009709F4EACEB3CFEBE7F3E058
:10188000E4918E2F90E0EBE7F3E0F4CF452B09F0E5
:10189000DECE89E090E0EDE1F3E0A3CF82E190E0DD
:1018A000EDE2F3E09ECF8091E801882309F47ACF3E
:1018B000853009F477CF8091E80083FD73CF809164
:1018C000E80082FDA2CF8091E80080FF98CF809150
:1018D000F3009091F2008927982789272115310577
:1018E00019F08830910550F041E0089709F040E088
:1018F0008091E8008E778093E80081CF44914093F7
:10190000F1003196215031090196E8CF803809F075
:101910009ECE8091E800877F8093E8008091DF0170
:101920008093F10089CE811192CE1091E2011230A4
:1019300008F08DCE8091E800877F8093E8001093B7
:10194000DF010E946405112351F084E08093E801D7
:1019500061EC81E00E948A048091E80178CE809158
:10196000E30087FDF2CF81E0F1CF882341F080953D
:10197000909160018923809360010E94DB090895A2
:10198000882339F090916001892B809360010E9437
:10199000DB090895882391F09CEF980F913A78F431
:1019A000EEE2F1E024E331E09281891301C012827A
:1019B00031962E173F07C1F70E94DB09089590E288
:1019C000980F9830D8F7877021E030E0A90102C065
:1019D000440F551F8A95E2F7CA01809590916001E6
:1019E000892380936001E8CFCF938823B9F0C82F73
:1019F0008CEF8C0F813A00F5A0E3B1E0EEE2F1E06C
:101A00008D91C81769F081E0A633B807C9F76C2F2C
:101A10008EE291E00E94F4050E94DB09CF910895C7
:101A20008281C81301C01282319681E0E433F80745
:101A3000B9F70E94DB09EBCF80E28C0F883070F79A
:101A4000C77021E030E001C0220FCA95EAF780910B
:101A50006001822B80936001DFCF0F931F93CF93A0
:101A6000DF938C018091E801843059F581E0809307
:101A7000E9008FEF9091E800815095FD06C095ED4B
:101A80009A95F1F700008111F5CF8091E80085FF6C
:101A900018C00E94350581110FC0C8E0D0E08091C8
:101AA000E80085FD13C08091E8008E778093E80000
:101AB0000E943505882399F38091E8008E77809302
:101AC000E800DF91CF911F910F910895F801819166
:101AD0008F018093F100219711F7EECFCF93DF9321
:101AE000EC010E942D0D88E0FE01A5EDB1E0019012
:101AF0000D928A95E1F7DF91CF9108950E94020A35
:101B00002FEF84E39CE0215080409040E1F700C03B
:101B1000000088E19AE00FB6F894A89580936000E1
:101B20000FBE90936000FFCFAB0124E630E0BC0114
:101B300088E70E946F1821E0892B09F020E0822FAE
:101B400008958091C9019091CA01911103C091E05B
:101B500089270895882369F062E070E085EC92E0BF
:101B60000E94940D811103C08091C90108951092C3
:101B7000C9018091C901EBCFCF93C091C901809178
:101B8000CA018823D1F00E94E805605A75418F4F41
:101B90009F4F6093C5017093C6018093C7019093D6
:101BA000C801C11108C062E070E083EC92E00E94BD
:101BB000940D811105C0C091C9018C2FCF9108955A
:101BC00081E08093C901F7CF1F920F920FB60F9259
:101BD00011242F933F934F935F936F937F938F9332
:101BE0009F93AF93BF93CF93EF93FF93C091E9007F
:101BF000CF708091EC001092E9008091F000877F17
:101C00008093F00078940E94100A1092E90080916D
:101C1000F00088608093F000C093E900FF91EF919D
:101C2000CF91BF91AF919F918F917F916F915F9174
:101C30004F913F912F910F900FBE0F901F901895CD
:101C40001F920F920FB60F9211242F933F934F9331
:101C50005F936F937F938F939F93AF93BF93EF9314
:101C6000FF938091E10082FF09C08091E20082FF32
:101C700005C08091E1008B7F8093E1008091DA00C4
:101C800080FF24C08091D80080FF20C08091DA00BE
:101C90008E7F8093DA008091D90080FF9AC080E126
:101CA00089BD82E189BD09B400FEFDCF81E080934A
:101CB000E8018091D201811109C00E94BC040E94F8
:101CC000DB048091E20084608093E2008091E10077
:101CD00080FF17C08091E20080FF13C08091E20076
:101CE0008E7F8093E2008091E20080618093E20029
:101CF0008091D80080628093D80019BC85E08093E1
:101D0000E8018091E10084FF29C08091E20084FF16
:101D100025C080E189BD82E189BD09B400FEFDCF07
:101D20008091D8008F7D8093D8008091E1008F7ED4
:101D30008093E1008091E2008F7E8093E2008091A9
:101D4000E20081608093E2008091DF01882309F442
:101D500046C084E08093E8018091E8018091E10031
:101D600083FF26C08091E20083FF22C08091E100C2
:101D7000877F8093E10082E08093E8011092DF0189
:101D80008091E1008E7F8093E1008091E2008E7F60
:101D90008093E2008091E20080618093E20060E045
:101DA00080E00E948A048091F00088608093F000B7
:101DB000FF91EF91BF91AF919F918F917F916F9123
:101DC0005F914F913F912F910F900FBE0F901F90F9
:101DD000189519BC1092E8011092D20177CF80912A
:101DE000E30087FD02C081E0B5CF83E0B3CF7894F4
:101DF0001F920F920FB60F9211248F939F93AF9360
:101E0000BF938091CE019091CF01A091D001B0916C
:101E1000D1010196A11DB11D8093CE019093CF01F8
:101E2000A093D001B093D101BF91AF919F918F91B9
:101E30000F900FBE0F901F9018959C014FB7F8940C
:101E40008091CE019091CF01A091D001B091D101AC
:101E50004FBF821B930B08952FB7F8948091CE014A
:101E60009091CF01A091D001B091D1012FBF0895E1
:101E70000F931F93CF93DF93C62FD42F122FFC0104
:101E800085818823A9F06093EB010E942C0F909329
:101E9000EA018093E901C77081E001C0880FCA950B
:101EA000EAF70E94C00CDF91CF911F910F91089526
:101EB0008091EB01681335C08091E9019091EA01AE
:101EC0000E941D0F883C910560F500E20D0FCD17B3
:101ED000B9F080E28C0F883040F4C77081E001C017
:101EE000880FCA95EAF70E94B50C083008F581E022
:101EF0009D2F977001C0880F9A95EAF70E94C00C39
:101F0000812F0E94F40C812F0E94CA0C083058F6D1
:101F1000D77081E001C0880FDA95EAF70E94B50C0E
:101F2000C2CFC77081E001C0880FCA95EAF7F6CF2B
:101F3000812F0E94F40C812F0E94CA0CB4CFACE018
:101F4000B0E0E5EAFFE00C9420194F8358876987D9
:101F50007A878B879C87911110925F0186E0FE0142
:101F60003796DE01119601900D928A95E1F78D81E9
:101F7000882341F021E049815A816B817C819E81D7
:101F80000E94F4088D81882309F121E049815A815A
:101F90006B817C819E810E94F4088C01FC01E851D8
:101FA000FC47E730F10568F5E852F04F0C94B119A1
:101FB000EE0FF20FDF0FEA0FF60FFA0FFE0F26E219
:101FC00041EE61EECE0101960E94380F2C96E5E0BD
:101FD0000C943C1927E245EE65EEF4CF26E241EE83
:101FE00060EEF0CF27E245EE64EEECCF26E241EE64
:101FF00062EEE8CF27E245EE66EEE4CF28E241E06C
:10200000EBCF8E81882309F4A0C21092EB019801D6
:1020100030572332310508F080C284E090E00E94FE
:102020005B199093810180938001F801E150F047A2
:10203000E232F10508F026C0E05EFF4E0C94B119C3
:102040007C10F11084104E105210881056108C1015
:1020500098106210EA1066109C106A10A010C81048
:102060006E10A410CF107410AA10B2105A10901055
:102070005E1094107810AE10BE10D810E810481002
:102080008010F8108091800181608093800195C05C
:10209000809181018860809381018FC0809180014F
:1020A0008260F3CF809180018460EFCF80918001C6
:1020B0008860EBCF809181018160EDCF80918101BB
:1020C0008260E9CF809180018061DFCF80918001C3
:1020D0008062DBCF809180018064D7CF0E94020AAA
:1020E000809180018068D1CF809180018860DCCFB1
:1020F000809181018260E0CF809180018E7FC5CF89
:1021000080918101877FC7CF809180018D7FBDCF76
:10211000809180018B7FB9CF80918001877FB5CF7F
:10212000809181018E7FB7CF809181018D7FB3CF68
:10213000809180018F7EA9CF809180018F7DA5CF76
:10214000809180018F7BA1CF0E94020A8091800143
:102150008F779BCF80918001877FDCCF8091810139
:102160008D7FE0CF8091800182FB992790F921E05B
:10217000922790FB82F990FB83F987CF80918101B0
:10218000982F909591708E7F892B90FB81F983CF4A
:1021900090918001892F8F7B96FF806476CF0E947B
:1021A000020A90918001892F97FB87F980586DCFA3
:1021B00061E08EE090E00E94711960918001709161
:1021C000810184E090E00E948F190E94020AFECEF5
:1021D00060E0EFCF90918001892F8F7E94FF806126
:1021E00054CF90918001892F8E7F90FF81604DCFD9
:1021F00090918101892F877F93FF88604CCF89E27E
:10220000EEE2F1E09281891301C01282319621E061
:10221000E433F207B9F796C101304CE7140749F1EE
:1022200003305CE71507F9F001151C4721F50E9402
:10223000020A2FEF44E35CE0215040405040E1F7B8
:1022400000C0000087E797E790930108809300089B
:1022500088E19AE00FB6F894A895809360000FBECD
:1022600090936000FFCF6FEF7FEF90E080E00E94DF
:102270008F190E947E0D09811A818823F1F0C8010F
:102280000E942B08F82E682FC8010E949208B801FE
:102290008F2D0E9427070E944507182FF82E2E81A8
:1022A000092F02950F70083009F467C058F4023006
:1022B00008F108500230C8F595C0C8010E945F08B7
:1022C000F82EE5CF093009F4E7C00C3090F782EF23
:1022D000181709F4F2C043EF141709F4F6C051EFD0
:1022E000151305C1892F8F71222309F4EBC00E94B9
:1022F000DF08DFCF092F0F70907F11F00295007F6C
:10230000812F222311F1002369F090E2910F983080
:1023100010F0111114C080916001082B009360012E
:102320000E94DB09812F0E94F40C20E049815A8130
:102330006B817C818D819E810E94F40847CE8091C3
:102340005F01082B00935F01EBCF0E94CA0C0023B2
:1023500061F30095105E183010F0F11008C0809104
:1023600060010823009360010E94DB09DECF8091A9
:102370005F01082300935F01F7CF892F837009F075
:1023800044C021112FC0812F829586958770880FB8
:10239000880F212F2F7030E0082E02C0220F331F2C
:1023A0000A94E2F750E040E014FF09C04FE050E02B
:1023B00002C0440F551F8A95E2F7409550959695B7
:1023C000969593709230B9F090F460917C01709181
:1023D0007D01913051F0C901842B952B86239723E1
:1023E0000E94EF080E940E06A0CF262B372BC901B2
:1023F000842B952BF5CFC901842B952B20917C0143
:1024000030917D0182279327EBCF8695222311F00F
:10241000892F8170882331F3812F8295869587706B
:10242000880F880F212F2F7030E0082E02C0220F56
:10243000331F0A94E2F750E040E014FF09C04FE078
:1024400050E002C0440F551F8A95E2F74095509521
:102450009695969593709230A9F080F460917E01E4
:1024600070917F01913041F0C901842B952B862317
:1024700097230E94C808B6CF262B372BC901842B7F
:10248000952BF7CFC901842B952B20917E0130919C
:102490007F0182279327EDCF092F0F70222339F078
:1024A000802F0E94DF08812F0E94C00C9BCF0E94CA
:1024B000B50C802F0E94CD0895CF892F8F712223D4
:1024C00009F415CF0E94CD08F4CE222369F09F7144
:1024D00021E030E0A90102C0440F551F9A95E2F7B0
:1024E000CA010E94C808E5CE90E080E0FACF22231E
:1024F00021F0812F0E94F40CDCCE59E3151309C0A2
:102500008FEF97EE23E0815090402040E1F700C02C
:102510000000812F0E94CA0CCCCE06314CE7140774
:1025200009F07ACE809160018A7A91E009F490E016
:102530009093360165E3811101C069E28EE291E07A
:102540000E94F4050E94DB0941CD06315CE71507C6
:1025500009F091CE80913601882309F450CE85E3AD
:102560004FCE4F925F927F928F929F92AF92BF9287
:10257000CF92DF92EF92FF920F931F93CF93DF934F
:10258000CDB7DEB72E970FB6F894DEBF0FBECDBF26
:102590008E010F5F1F4F8EE0F80111928A95E9F7C7
:1025A00022E1E22E21E0F22E3DE1832E31E0932E56
:1025B000CC24C394D12CAA24A394B12CF7018191EB
:1025C0007F018F3F09F44FC0F894E82FE295EF7038
:1025D000F0E021A18F70A50102C0440F551F8A951C
:1025E000E2F7CA01922F982B91A392A1809589239B
:1025F00082A3789400C09DE1492E91E0592ED80124
:10260000B60160957095F20171902F018D919D91A9
:10261000AD0142505109FFEF7F1609F45CC0272D30
:1026200022952F7030E0F90120A130E0F72DFF70E6
:1026300002C035952795FA95E2F720FD4CC08C290C
:102640009D29FA0191838083F4E24F16F1E05F0641
:10265000D1F6F701319780818F3F11F00E941D065E
:1026600020EA2A95F1F7CC0CDD1C8E149F0409F0AA
:10267000A5CF4EE050E0B8018EE691E00E94B71978
:10268000892B71F18EE0F801AEE6B1E001900D9278
:102690008A95E1F781E080936D010E942C0F909361
:1026A0006C0180936B0110E0812F2E960FB6F89489
:1026B000DEBF0FBECDBFDF91CF911F910F91FF9075
:1026C000EF90DF90CF90BF90AF909F908F907F90D2
:1026D0005F904F90089586239723B3CF10E01FC0DB
:1026E00010916D011123F9F280916B0190916C01B1
:1026F0000E941D0F0597B8F24EE050E06EE671E0C3
:1027000082E891E00E94B719892B41F38EE0EEE652
:10271000F1E0A2E8B1E001900D928A95E1F7109204
:102720006D01C2CFA6E0B0E0E8E9F3E10C94211915
:102730000E942C0F8C018091690190916A01801791
:10274000910781F019821A820E942C0F682F49810B
:102750005A81792F80E090E00E949F0F10936A01C8
:10276000009369012696E4E00C943D198091A10143
:102770008F3091F058F4882389F08A3069F00E94F4
:102780002C0F9093A00180939F010895893151F0FF
:102790008E3151F0843199F78EE101C08AE0809347
:1027A000A101EDCF84E1FBCF88E2F9CF1F920F9218
:1027B0000FB60F9211248F939F93AF93BF93809185
:1027C000CD01811113C08091CE019091CF01A091D4
:1027D000D001B091D1014196A11DB11D8093CE01D0
:1027E0009093CF01A093D001B093D101BF91AF914D
:1027F0009F918F910F900FBE0F901F901895AAE098
:10280000B0E0E5E0F4E10C94131985B7806885BF6A
:1028100085B7806885BF84B7877F84BF0FB6F8947B
:10282000A89580916000886180936000109260009C
:102830000FBE80E890E00FB6F8948093610090930B
:1028400061000FBE8BE196E090932D0180932C01E7
:102850000E94BC040E94DB048091E20084608093AB
:10286000E20078948091E801882399F01091E900C2
:102870001F708091EC0080FF77C180E8182B1092C8
:10288000E9008091E80083FD0E94100A1F701093F8
:10289000E90082E084BD93E095BD9AEF97BD8093F7
:1028A0006E0002E111E0ADE1EA2EA1E0FA2ED801BE
:1028B0008D918D018F3F11F00E941D06E016F106EB
:1028C000B1F70DE111E0F80181918F018F3F11F017
:1028D0000E941D06F1E004321F07A9F78EE0E2E82E
:1028E000F1E0DF01282F1D922A95E9F7EEE6F1E0ED
:1028F000DF011D928A95E9F790E080E00E945B1964
:10290000853E9E4F09F461C065EE7EEF90E080E069
:102910000E948F1960E082E090E00E94711981E0CE
:1029200090E090937D0180937C0161E083E090E0F2
:102930000E94711960E074E184E090E00E948F19B8
:1029400060E086E090E00E94711960E087E090E02E
:102950000E94711940E050E0BA0188E090E00E94C6
:10296000831960E083E290E00E94711960E08CE0DE
:1029700090E00E94711960E08DE090E00E94711972
:1029800019821A821B821C821D821E821F82188657
:1029900048E050E067E170E0CE0101960E946119C5
:1029A00040E050E0BA018FE190E00E94831940E0DE
:1029B00050E0BA018FE090E00E94831940E050E0BF
:1029C000BA0183E190E00E94831982E090E00E94C6
:1029D00053198093900184E090E00E945B199093DA
:1029E00081018093800183E090E00E94531990E080
:1029F0000E94EF080E942C0F9093A00180939F01EA
:102A00001092C20180E88093EC010E94F7176BE0FE
:102A100070E087E392E00E94940D8823E9F18091B1
:102A2000C20165E070E081FDA1C082E392E00E94F6
:102A3000940D882389F16DE070E080E292E00E94BD
:102A4000940D882349F10E94E805605A75418F4F23
:102A50009F4F6093C5017093C6018093C701909307
:102A6000C801EFEEF1E080E092E0DF019C011D92F1
:102A700021503040E1F7F093F603E093F5038FEF38
:102A80009FEF9093EE018093ED0181E08093CA0166
:102A90008093C9011092C30180E091E09093CC0132
:102AA0008093CB01F0E46F2E8091E80112E1853034
:102AB00009F49AC00E94B11271E9A72E71E0B72EF5
:102AC000E2E88E2EE1E09E2ED401F50121913191B4
:102AD0008D919D9141E0EF39F40709F48FC02817DB
:102AE0003907A1F3712C44244394D4010D911D9115
:102AF0004D01F501C190D1905F01C016D10659F189
:102B0000512CEE24E394F12CC026D126C6018E214F
:102B10009F21892BB1F059827A820E942C0F9C83CD
:102B20008B834D8291E0970120233123232B09F4DD
:102B300090E09E8349815A816B817C818D810E94C6
:102B40009F0F5394EE0CFF1CFBE05F12DFCFF501EB
:102B5000329711830083739427E07212C6CF0E94CC
:102B6000E805DD24D39451C080E088CE8DE292E068
:102B70005ECF8091E801843029F10E94A10D10926E
:102B8000CD0188E190E00FB6F894A895809360009D
:102B90000FBE6092600083B7817F846083BF83B77C
:102BA000816083BF7894889583B78E7F83BF0FB68B
:102BB000F894A895809160008861809360001092DD
:102BC00060000FBE8091DE01882371F00E94B11277
:102BD000E2E8F1E081919191892B09F0A6C1A0E989
:102BE000B1E0AE17BF07B1F78091E801853009F475
:102BF000C0CF0E94020A0E940E065CCF2817390738
:102C000009F070CF0E949213D12C8091CA018823C1
:102C100009F463C18FEE91E09093F6038093F5037E
:102C20008091A1018F3009F45BC0A0F5882309F4DD
:102C30003FC08A3009F44FC08091ED019091EE01C0
:102C4000892B09F431C18091CA01882309F42CC170
:102C50008091C301811128C10E94BC0D2091ED011A
:102C60003091EE012115310509F41EC180E041E0EB
:102C700050E0082F10E07A01082E02C0EE0CFF1C75
:102C80000A94E2F7B70162237323672B09F070C03F
:102C90008F5FEFCF8931A9F1883209F443C08431C5
:102CA00059F60E94D6098DE992E00E94C809C4CF66
:102CB0000E94D6098EEA92E00E94C80980919F0185
:102CC0009091A0010E941D0F893B9B4008F4B4CF56
:102CD0000E94B613B1CF0E94D6098AE892E0E5CFF0
:102CE0000E94D6098FE692E00E94C80980919F0158
:102CF0009091A0010E941D0F893B9B4008F49CCF3E
:102D0000E7CF0E94D60983E592E00E94C80980912E
:102D10009F019091A0010E941D0F893B9B4008F4E8
:102D20008BCFD6CF86E492E00E94C80980919F01A4
:102D30009091A0010E941D0F68EB7BE00E94FF189C
:102D4000893E934020F084E492E00E94C80980917B
:102D50009F019091A0010E941D0F68EB7BE00E94F3
:102D6000FF18813D974008F467CF82E492E09DCF41
:102D70009091C20190FFC0C0880F880F880F809388
:102D80000C0110920F01895F80930D0183E0809305
:102D9000100124E630E047E050E06AE071E088E7A7
:102DA0000E942B18892B09F07FC0A80195E0440FE1
:102DB000551F9A95E1F78091C20180FFAFC0E2EA0A
:102DC000F1E080E2DF011D928A95E9F7E8E2F1E0A7
:102DD000FA87E98704E211E08CE2282E81E0382EA0
:102DE00088248394A985BA852D91BA87A987F8018B
:102DF00041908F01440E552E511CC20181519E4FAE
:102E00002C0130E02E553E4FF90197E0BF01621BC7
:102E1000730B982C01C0990C6A95EAF75201C12CEA
:102E2000D5018D915D018921692F6C196770762E0E
:102E3000062E000C770BB82F01C0BB0F7A94EAF76F
:102E40007B2E7195619571096770772701C0869512
:102E50006A95EAF7782A8081782A7082C39488E09C
:102E6000C812DECF915031969F3F81F6A985BA8571
:102E70002A163B0609F0B6CF04E610E020E230E067
:102E800042EA51E060E488E70E94B518892B61F4BA
:102E9000E094F0948091ED019091EE01E822F92206
:102EA000F092EE01E092ED018091C9018823A9F032
:102EB0000E94E8050091C5011091C6012091C7014B
:102EC0003091C801601B710B820B930B6F3F7F4FDA
:102ED0008F4F9F4710F40E94A10DD1100E94BC0D8E
:102EE0000E940E069091C401891709F4DDCD8093EC
:102EF000C4010E94E805D8CD8295880F8076809322
:102F00000C019801369527953695279520930F014A
:102F1000815E80930D01209310013BCF41515E4FA4
:102F200004E610E020E230E0ADCFE0E1E9BD19BDFC
:102F300009B400FEFDCF8091D8008F7D8093D8002A
:102F40008091E00082608093E0008091E00081FD4C
:102F5000FCCF0E94020A48CEEF92FF920F931F937C
:102F6000CF93DF93182FEB011092BC0084EA80937B
:102F7000BC000E942C0F7C018091BC0087FF0DC01B
:102F80008091B900887F8830A9F08091B900887F4E
:102F9000803181F08FEF9FEF08C0C7010E941D0FA5
:102FA000C817D90748F78EEF9FEFCDB7DEB7E6E039
:102FB0000C943B191093BB0084E88093BC000E94E2
:102FC0002C0F8C018091BC0087FF0AC08091B90052
:102FD000887F883111F08034E9F690E080E0E5CF19
:102FE000C8010E941D0FC817D90760F7DCCF1092E7
:102FF000B9008CE08093B80008950F931F93CF938E
:10300000DF93EB018093BB0084E88093BC000E94B7
:103010002C0F8C018091BC0087FF11C02091B9005A
:10302000287F81E090E0283211F490E080E09195D3
:1030300081959109DF91CF911F910F910895CF3F15
:10304000DC0741F3C8010E941D0FC817D90710F70C
:103050008EEF9FEFEFCFB0E0A0E0E1E3F8E10C945A
:103060001819782E5B016A0189010E942C0F4C010E
:10307000C1E0D0E00431110558F0C5E0D0E00F3FC9
:10308000100731F0C80164E170E00E94FF18EB0105
:10309000BE01872D0E94AC177C0197FF09C00F3F2E
:1030A0001007B1F3C4010E941D0F0817190780F71C
:1030B000E501CA0CDB1CCC15DD0511F0F7FE09C0DB
:1030C00084E98093BC00C701CDB7DEB7EDE00C9476
:1030D0003419B80189910E94FD177C01ECCFB0E052
:1030E000A0E0E5E7F8E10C941819782E5B016A017D
:1030F00089010E942C0F4C01C1E0D0E00431110580
:1031000058F0C5E0D0E00F3F100731F0C80164E18E
:1031100070E00E94FF18EB01BE01872D0E94AC17E2
:103120007C0197FF09C00F3F1007B1F3C4010E9453
:103130001D0F0817190780F7E501CA0CDB1CCC1519
:10314000DD0511F0F7FE09C084E98093BC00C701DA
:10315000CDB7DEB7EDE00C943419FE018491B801CF
:103160000E94FD177C012196EACFB0E0A0E0EBEBD6
:10317000F8E10C941719682E762E5A0169010E9405
:103180002C0F4C01C1E0D0E00431110558F0C5E02E
:10319000D0E00F3F100731F0C80164E170E00E94F9
:1031A000FF18EB01BE01862D0E94AC177C0197FF32
:1031B0001DC00F3F1007B1F3C4010E941D0F081777
:1031C000190780F784E98093BC00C701CDB7DEB74B
:1031D000EEE00C943319B80189910E94FD177C012F
:1031E000CC16DD0679F3F7FEF6CFECCFB801872DCC
:1031F0000E94FD177C01E501CA0CDB1CF1CFAA1B64
:10320000BB1B51E107C0AA1FBB1FA617B70710F0D1
:10321000A61BB70B881F991F5A95A9F78095909503
:10322000BC01CD0108952F923F924F925F926F9211
:103230007F928F929F92AF92BF92CF92DF92EF9246
:10324000FF920F931F93CF93DF93CDB7DEB7CA1BC7
:10325000DB0B0FB6F894DEBF0FBECDBF09942A88F2
:10326000398848885F846E847D848C849B84AA849A
:10327000B984C884DF80EE80FD800C811B81AA8127
:10328000B981CE0FD11D0FB6F894DEBF0FBECDBFF2
:10329000ED010895FB01DC0102C005900D92415043
:1032A0005040D8F70895F999FECF92BD81BDF89AA4
:1032B000992780B50895A8E1B0E042E050E00C9471
:1032C0009719DC01A40FB51F4150504048F0CB01C5
:1032D000840F951F2E910E94721941505040D0F7D3
:1032E0000895262FF999FECF92BD81BDF89A0197D6
:1032F00000B4021639F01FBA20BD0FB6F894FA9A3E
:10330000F99A0FBE08950396272F0E9472190E9402
:103310007119252F0E947219242F0C94721901968D
:10332000272F0E9472190C947119DC01CB01FC014A
:10333000F999FECF06C0F2BDE1BDF89A319600B40E
:103340000D9241505040B8F70895991B79E004C0A0
:10335000991F961708F0961B881F7A95C9F78095D4
:103360000895EE0FFF1F0590F491E02D0994FB01E5
:10337000DC0104C08D910190801921F4415050402E
:0C338000C8F7881B990B0895F894FFCF44
:10338C00E5056E0DE205E405E3050021007F220052
:10339C000301C267663635349796943793F0F1F48F
:0C33AC00F5F6F7C600081018181008000D
:00000001FF
