:100000000C9469010C9486010C9486010C94860171
:100010000C9486010C9486010C9486010C94860144
:100020000C9486010C9486010C945C0A0C94200AB2
:100030000C94F20F0C9486010C9486010C948601AA
:100040000C9486010C9486010C9486010C94860114
:100050000C9486010C94330B0C9486010C9486014D
:100060000C9486010C9486010C9486010C948601F4
:100070000C9486010C9486010C9486010C948601E4
:100080000C9486010C9486010C9486010C948601D4
:100090000C9486010C9486010C9486010C948601C4
:1000A0000C9486010C9486010C948601290035007D
:1000B0002B003900E100E00011000D0018002400C1
:1000C00040003A001E00140004006400E20010002A
:1000D0000E000C00250041003B001F001A00160016
:1000E0001D00E30036000F001200260042003C0015
:1000F0002000080007001B002C003700330013000D
:10010000270043003D0021001500090006005000B3
:10011000380034002F002D0044003E00220017005C
:100120000A00190051005200320030002E00450034
:100130003F0023001C000B0005004F00E6002800D4
:100140002A004C00460001000100010001000100EE
:1001500001000100010001000100D20001000100C6
:100160000100010001000100010001000100010087
:100170000100010001000100010001000100010077
:100180000100010001000100010001000100010067
:100190000100010001000100010001000100010057
:1001A0000100010001000100010001000100010047
:1001B0000100010001000100010001000100010037
:1001C00001000100010001000100D1000100010057
:1001D0000100010001000100010001000100010017
:1001E00000DA1281FFD9F1DB20A4A62EAF00A0C057
:1001F000D32000A1C8D32000AED580A87F408D14A5
:1002000000AF00AE05010906A101050719E029E7C5
:100210001500250195087501810295017508810178
:100220000507190029FF150026FF009506750881AE
:10023000000508190129051500250195057501918D
:1002400002950175039101C009022200010100A07D
:10025000FA09040000010301010009211101000154
:10026000224400070581030800011201000200007A
:100270000008EDFEFEBA0300010200013A0342004D
:1002800061006C007400680061007A006100720017
:1002900020006B006500790062006F006100720051
:1002A00064002000760065007200730069006F0032
:1002B0006E002000330000001403420041004C0097
:1002C0005400480041005A0041005200000004035D
:1002D000090411241FBECFEFDAE0DEBFCDBF11E06D
:1002E000A0E0B1E0E4EDFAE202C005900D92A23385
:1002F000B107D9F726E0A2E3B1E001C01D92A23117
:10030000B207E1F70E941B100C9468150C940000D2
:10031000982F9093E900562F40E022E0891731F0A2
:100320005091EC002091ED004091F00021FD07C0BC
:100330009F5F973071F78093E90081E008953091D5
:10034000EB003E7F3093EB003091ED003D7F30932A
:10035000ED003091EB0031603093EB005093EC00F6
:100360002093ED004093F0002091EE0027FDE0CFB8
:1003700080E00895E8EDF0E080818E7F8083109228
:10038000E2001092DA001092E100A0EEB0E08C9151
:1003900081608C9380818F77808319BCA7EDB0E05A
:1003A0008C918E7F8C9380818F7E80831092F80554
:1003B0000895B0E0A0E0EFEDF1E00C94D614C8EDA4
:1003C000D0E088818F7E8883E7EDF0E080818160D6
:1003D000808384E082BF81E08093F80588818E7FEE
:1003E000888302EE10E0F80110821092DA0081EEAC
:1003F000C82ED12CF601108288818F77888388815E
:100400008068888388818F7D888319BC10920E064E
:1004100010920506109204061092030690EEE92E43
:10042000F12CF70180818B7F8083888181608883B4
:1004300060E080E00E948801F60180818E7F8083E9
:10044000F801808181608083808188608083F701EA
:1004500080818E7F8083888180618883CDB7DEB77D
:10046000E8E00C94F2142091E4003091E50085E678
:100470009091EC0090FF06C09091E80090FF06C0BC
:1004800080E008959091E80092FDFACF90910E06D9
:10049000992391F0953091F09091EB0095FD10C06B
:1004A0004091E4005091E5002417350709F381508D
:1004B0009A01F1F684E0089582E0089583E00895BA
:1004C00081E008958091060687FF13C08091E800BF
:1004D00082FF06C08091E8008B778093E80004C01B
:1004E00080910E068111F2CF089580910E06882327
:1004F000D9F38091E80080FFF8CF8091E8008E77F3
:10050000ECCFFC0180910C0690910D0686179707A1
:10051000A0F06115710529F49091E8009E77909301
:10052000E80090E06115710551F4911108C08091C7
:10053000E80082FF35C080E00895BC01F2CF8091D1
:100540000E068823C9F18530C9F18091E80083FD4A
:1005500031C08091E80082FDEACF8091E80080FF01
:10056000E1CF2091F3008091F200322F282F611506
:10057000710519F02830310558F091E02830310527
:1005800009F090E02091E8002E772093E800CACF90
:1005900081918093F100615071092F5F3F4FE7CF48
:1005A00080910E06882341F0853041F08091E8006B
:1005B00083FFBDCF81E0089582E0089583E0089530
:1005C0000895089508958091FA0508952FB7F89435
:1005D0006091F4057091F5058091F6059091F7050D
:1005E0002FBF08959C01FC0132969FEF80E041915E
:1005F000461751F09F3F19F4411101C0982F8F5FAA
:100600008630A9F79F3F09F40895290F311D97FD02
:100610003A95F90162830895E091F105F091F205B0
:10062000309729F00190F081E02D0995089580E040
:10063000089580E00895F894E82FE295EF70F0E0D7
:1006400031A1282F2F7081E090E001C0880F2A95FA
:10065000EAF7982F9095932391A392A1892B82A3D7
:10066000789408959091860192FF10C041E0282F60
:100670002471243009F040E031E0282F287128301F
:1006800009F030E0431711F02CE0822793FF10C0EF
:1006900041E0282F2471243109F040E031E0282F77
:1006A0002871283109F030E0431711F02CE082273F
:1006B0003091870130FF10C051E0282F2171213087
:1006C00009F050E041E0282F2871283009F040E07F
:1006D000541711F029E0822731FF10C041E0282F84
:1006E0002171213109F040E031E0282F28712831B3
:1006F00009F030E0431711F029E0822794FD877E4E
:10070000089582389105B9F1B0F48133910509F467
:100710007DC048F48932910509F46DC08A32910593
:1007200009F479C008958533910509F45FC08933D0
:10073000910509F10895833E9105D9F138F4803E81
:10074000910529F1823E910579F10895863E910542
:10075000D9F1873E910509F43EC0843E910541F5EB
:100760002091870121FF24C08091860184FD19C05A
:1007700087EE90E0089520918601237009F056C01D
:100780002091870123FF14C089E290E00895209111
:10079000860120FD38C03091870130FF09C024FF59
:1007A0003FC090E080E008952091860122FDF7CFC0
:1007B00008952091860122FD36C03091870130FDD9
:1007C00035C024FDEECFF4CF2091860123FFF0CF7A
:1007D00024FDE7CFCDCF2091860123FD2AC03091A3
:1007E000870131FFEECF84EE90E0089520918601DD
:1007F00025FDCACF08952091860125FD1DC02091B9
:10080000870123FFD5CF89E390E0089520918601E9
:1008100026FD15C008952091860126FD13C0089578
:1008200083EE90E0089582EE90E0089580EE90E0EF
:10083000089586EE90E0089585E390E008958AE2B9
:1008400090E0089581E390E0B3CF7730B8F46B3057
:10085000A8F48230B0F4E62FF0E09BE0799FE00D41
:10086000F11D11249DE4899FE00DF11D1124EE0F6F
:10087000FF1FE455FF4F85919491089580E090E02B
:10088000089581E0FCCF0F931F93CF93DF930E94D5
:100890008103EC01811522E59207D8F5C11580E5A9
:1008A000D80708F0B9C0C83ED105C8F4C03ED1058C
:1008B00080F4C53AD10548F4C430D10550F4C130B4
:1008C000D10539F0D0E0C0E004C0CD3CD105D0F373
:1008D000D065CE01DF91CF911F910F910895C11581
:1008E00021E0D20778F38E011127C11580E2D807E5
:1008F00008F0AAC08D2F0E943203C82FC8010E94A1
:100900008103D0E0DC2FCC27CC27DF71C82BD92B7B
:10091000E0CF80369245F0F4C03482E5D80708F085
:100920005BC0C03222E5D20708F04FC02C2F2695BD
:10093000269580E2289F900111248C2F8370C1E0BE
:10094000D0E002C0CC0FDD1F8A95E2F7C22BD32B7B
:10095000DD68BFCFC03C82E5D807E0F4C03A22E5AD
:10096000D20708F04EC0C03882E5D80708F0AACFF9
:100970002C2F237081E090E002C0880F991F2A95E8
:10098000E2F79A68C695C695C77020E2C29FE0015B
:100990001124BCCFC03E22E5D20708F093CF9E01C0
:1009A00043E0220F331F4A95E1F7207E3327CE0123
:1009B00083709927C1E0D0E002C0CC0FDD1F8A957B
:1009C000E2F7C22BD32BDA6884CFCF71D0E0DC2FD3
:1009D000CC27C16FD06A7DCF2C2F26952695277006
:1009E00080E2289F900111248C2F8370C1E0D0E019
:1009F00002C0CC0FDD1F8A95E2F7DC68C22BD32B37
:100A000068CF8C2F8F710E943203C82FD0E0DC2F6B
:100A1000CC27CC27DF715DCF8C2F8F710E943203E2
:100A200095E0D695C7959A95E1F7CF70D0E0DC2F89
:100A3000CC27282F30E084FF05C084E0220F331F2D
:100A40008A95E1F7D069DACFC8010E948103EC01F1
:100A500040CFB0E0A0E0EFE2F5E00C94D5147C01CB
:100A60000091840110918501809182019091830110
:100A7000082B192BCFE0D0E0CC24C394D12CBC2E72
:100A8000C6010C2E02C0880F991F0A94E2F780233A
:100A90009123892B49F4219790F7B12C8B2DCDB759
:100AA000DEB7E9E00C94F114B7018C2F0E94250405
:100AB0000E944304019779F3F1CF973078F58B309A
:100AC00068F5E82FF0E08BE0989FE00DF11D112410
:100AD0009E2F977083E0F695E7958A95E1F7EE0FE4
:100AE000FF1FEE0FFF1FE35CFE4F50E040E080E091
:100AF000219130E0092E02C0369527950A94E2F73D
:100B000021703327042E01C0220F0A94EAF7822BAA
:100B10004F5F5F4F4430510559F7089580E00895C5
:100B2000973098F58B3088F5E82FF0E08BE0989FB0
:100B3000E00DF11D11248E2F877041E001C0440F9C
:100B40008A95EAF783E0F695E7958A95E1F7EE0F47
:100B5000FF1FEE0FFF1FE35CFE4F30E020E070E070
:100B60005191DF011197CB01022E02C09695879516
:100B70000A94E2F7817081958527842385278C93D9
:100B80002F5F3F4F2430310559F708959093850129
:100B900080938401089521E030E002C0220F331FCA
:100BA0008A95E2F720953095809184019091850196
:100BB000822393230E94C605089521E030E002C0FD
:100BC000220F331F8A95E2F780918401909185016D
:100BD000822B932B0E94C6050895909383018093E6
:100BE00082010895A6E0B0E0E8EFF5E00C94DB1494
:100BF00049835A8349815A819923A1F0222391F094
:100C0000CA010E942905182F682F89819A810E94A4
:100C1000900569817A81812F0E9425042696E3E060
:100C20000C94F714CA010E945D05182FF2CF0F93A0
:100C30001F93CF93DF938C0180910E06843059F57A
:100C400081E08093E9008FEF9091E800815095FD5D
:100C500006C095ED9A95F1F700008111F5CF8091CE
:100C6000E80085FF18C00E94330281110FC0C8E060
:100C7000D0E08091E80085FD13C08091E8008E7778
:100C80008093E8000E943302882399F38091E80062
:100C90008E778093E800DF91CF911F910F91089597
:100CA000F80181918F018093F100219711F7EECF28
:100CB000CF93DF93EC010E94170688E0FE01ABEFB3
:100CC000B5E001900D928A95E1F7DF91CF910895FB
:100CD000AB0124E630E0BC0188E70E94281421E043
:100CE000892B09F020E0822F08958091EF059091E3
:100CF000F005911103C091E089270895882369F0D8
:100D000062E070E082E092E00E946806811103C018
:100D10008091EF0508951092EF058091EF05EBCFDC
:100D2000CF93C091EF058091F0058823D1F00E9408
:100D3000E602605A75418F4F9F4F6093EB057093A9
:100D4000EC058093ED059093EE05C11108C062E0BB
:100D500070E080E092E00E946806811105C0C091B9
:100D6000EF058C2FCF91089581E08093EF05F7CFA9
:100D70008091660190916501892B8093340148E050
:100D800050E067E671E084E391E00E945B15892BF7
:100D9000A9F088E0E4E3F1E0A7E6B1E001900D926C
:100DA0008A95E1F7E091F105F091F205309731F085
:100DB0000280F381E02D84E391E00995089510927B
:100DC0006601E6E3F1E086E0DF011D928A95E9F72E
:100DD000109265010E94B8060895AAE2B0E0E3EF20
:100DE000F6E00C94DB14E6E0F6E08091F1008193EC
:100DF00026E0EE30F207C9F780910706833009F448
:100E00007DC008F5813009F454C0823009F4BEC0B9
:100E10008091E80083FFF8C0809106069091070654
:100E20009A3008F0F1C0E92FF0E0E75EF84F0C943B
:100E30005515D707FD070408FD070408550877086E
:100E40000408630970098A3009F48FC08B3009F4F3
:100E500072C08930E9F6809106068132C9F6809128
:100E60000A0690910B06892B99F68091E800877FFE
:100E70008093E8008091E80082FF3BC08091F300FE
:100E80009091F200892798278927029731F4809161
:100E9000F100813011F0863021F48091F1008093CF
:100EA000FA058091E8008B778093E8000E94620247
:100EB000AFCF80910606813A09F0AACF8091E80071
:100EC000877F8093E80080910A0690910B06892B1A
:100ED00061F060E090E080E070E00E94810280912B
:100EE000E8008B778093E80093CF68E08BEF95E084
:100EF000F3CF80910E068111BDCF8ACF8091060677
:100F0000813A09F085CF80910A0690910B06892BD2
:100F100009F07ECF8091E800877F8093E800809180
:100F2000E80080FFFCCF80910E018093F10080915A
:100F3000E8008E77B9CF80910606813209F068CF3C
:100F400080910A0690910B06892B09F061CF809160
:100F5000E800877F8093E8000E9462028091080683
:100F600080930E010E94DF0653CF809106068132E6
:100F700009F04ECF8091E800877F8093E8000E94BF
:100F80006202809109068093F90542CF809106069E
:100F9000813A09F03DCF8091E800877F8093E80097
:100FA0008091E80080FFFCCF8091F905BECF8038AA
:100FB00089F0823849F580910A068F70873020F5D4
:100FC0008093E9008091EB0085FB882780F91092DF
:100FD000E90006C080910306909104069111826099
:100FE0009091E800977F9093E8008093F100109231
:100FF000F1008091E8008E7727C0282F2D7F21F403
:101000008823A1F0823029F18091E80083FF0AC093
:101010008091E800877F8093E8008091EB008062F8
:101020008093EB00AA96E3E00C94F71480910806F5
:10103000813051F7933009F080E0809304061092DC
:10104000E9008091E800877F8093E8000E946202B7
:10105000DBCF809108068111F2CF80910A068F7054
:101060002FEF280F263080F68093E9002091EB00C7
:1010700020FFE5CF933031F48091EB0080628093C4
:10108000EB00DDCF9091EB0090619093EB0021E0BD
:1010900030E001C0220F8A95EAF72093EA0010920F
:1010A000EA008091EB008860EACF8111ADCF10910A
:1010B00008061F778091E3008078812B8093E300FE
:1010C0008091E800877F8093E8000E94620280910F
:1010D000E80080FFFCCF8091E30080688093E3000C
:1010E00083E0111101C082E080930E068DCF8058FD
:1010F000823008F089CF80910806909109068C3DD6
:1011000023E09207A1F583E08A838AE289834FB7BF
:10111000F894DE01139620E03EE051E2E32FF0E088
:1011200050935700E49120FF03C0E295EF703F5FBA
:10113000EF708E2F90E0EA30C0F0C7968D939D93AC
:101140002F5F243159F74FBF8091E800877F80934C
:10115000E8006AE270E0CE0101960E94810280916F
:10116000E8008B778093E8004FCFC096E7CF40919F
:101170000A0650910B06292F33272330310509F435
:101180003FC078F52130310509F465C082E290E076
:10119000E8E4F2E02230310509F036CF2091E80092
:1011A000277F2093E80020910C0630910D068217CE
:1011B000930708F49C0140E02115310509F050C067
:1011C00041114EC08091E80082FDC9CF80910E068A
:1011D000882329F2853019F28091E80083FFF2CF4D
:1011E000BECF2132310579F12232310509F00CCF21
:1011F000452B09F009CF84E490E0E4E0F2E0CECFA3
:10120000992781309105B9F058F0029709F0FCCE8A
:10121000ECE7F2E0E4918E2F90E0ECE7F2E007C01B
:10122000EEECF2E0E4918E2F90E0EEECF2E000972D
:1012300009F4EACEB3CFE8EBF2E0E4918E2F90E030
:10124000E8EBF2E0F4CF452B09F0DECE89E090E048
:10125000EAE5F2E0A3CF82E190E0EAE6F2E09ECF99
:1012600080910E06882309F47ACF853009F477CF70
:101270008091E80083FD73CF8091E80082FDA2CFCA
:101280008091E80080FF98CF8091F3009091F20068
:101290008927982789272115310519F0883091056C
:1012A00050F041E0089709F040E08091E8008E7727
:1012B0008093E80081CF44914093F1003196215012
:1012C00031090196E8CF803809F09ECE8091E80080
:1012D000877F8093E800809105068093F10089CE96
:1012E000811192CE10910806123008F08DCE8091B7
:1012F000E800877F8093E800109305060E94620251
:10130000112351F084E080930E0661EC81E00E948D
:10131000880180910E0678CE8091E30087FDF2CFA0
:1013200081E0F1CF0E94DF062FEF84E39CE02150A3
:1013300080409040E1F700C0000088E19AE00FB6DD
:10134000F894A895809360000FBE90936000FFCF43
:10135000882341F0809590916601892380936601EE
:101360000E94B8060895882339F090916601892B70
:10137000809366010E94B8060895882391F09CEF3F
:10138000980F913A78F4E4E3F1E02AE331E09281B6
:10139000891301C0128231962E173F07C1F70E94B0
:1013A000B806089590E2980F9830D8F7877021E03A
:1013B00030E0A90102C0440F551F8A95E2F7CA0127
:1013C000809590916601892380936601E8CFCF9341
:1013D0008823B9F0C82F8CEF8C0F813A00F5A6E373
:1013E000B1E0E4E3F1E08D91C81769F081E0AC333E
:1013F000B807C9F76C2F84E391E00E94F2020E94C3
:10140000B806CF9108958281C81301C01282319627
:1014100081E0EA33F807B9F70E94B806EBCF80E223
:101420008C0F883070F7C77021E030E001C0220FC8
:10143000CA95EAF780916601822B80936601DFCF1F
:101440001F920F920FB60F9211242F933F934F9339
:101450005F936F937F938F939F93AF93BF93CF933C
:10146000EF93FF93C091E900CF708091EC00109250
:10147000E9008091F000877F8093F00078940E94CB
:10148000ED061092E9008091F00088608093F000F2
:10149000C093E900FF91EF91CF91BF91AF919F91E0
:1014A0008F917F916F915F914F913F912F910F900D
:1014B0000FBE0F901F9018951F920F920FB60F92AC
:1014C00011242F933F934F935F936F937F938F9349
:1014D0009F93AF93BF93EF93FF938091E10082FFBF
:1014E00009C08091E20082FF05C08091E1008B7FFE
:1014F0008093E1008091DA0080FF24C08091D800C1
:1015000080FF20C08091DA008E7F8093DA00809186
:10151000D90080FF9AC080E189BD82E189BD09B40C
:1015200000FEFDCF81E080930E068091F8058111C9
:1015300009C00E94BA010E94D9018091E200846032
:101540008093E2008091E10080FF17C08091E2006B
:1015500080FF13C08091E2008E7F8093E200809133
:10156000E20080618093E2008091D80080628093E5
:10157000D80019BC85E080930E068091E10084FFBD
:1015800029C08091E20084FF25C080E189BD82E10D
:1015900089BD09B400FEFDCF8091D8008F7D809376
:1015A000D8008091E1008F7E8093E1008091E2007D
:1015B0008F7E8093E2008091E20081608093E20060
:1015C00080910506882309F446C084E080930E06C6
:1015D00080910E068091E10083FF26C08091E20099
:1015E00083FF22C08091E100877F8093E10082E049
:1015F00080930E06109205068091E1008E7F809305
:10160000E1008091E2008E7F8093E2008091E20011
:1016100080618093E20060E080E00E948801809118
:10162000F00088608093F000FF91EF91BF91AF913F
:101630009F918F917F916F915F914F913F912F91EA
:101640000F900FBE0F901F90189519BC10920E06A8
:101650001092F80577CF8091E30087FD02C081E00A
:10166000B5CF83E0B3CF78941F920F920FB60F924D
:1016700011248F939F93AF93BF938091F405909122
:10168000F505A091F605B091F7050196A11DB11DD4
:101690008093F4059093F505A093F605B093F705B4
:1016A000BF91AF919F918F910F900FBE0F901F90A0
:1016B00018959C014FB7F8948091F4059091F50529
:1016C000A091F605B091F7054FBF821B930B0895CB
:1016D0002FB7F8948091F4059091F505A091F60547
:1016E000B091F7052FBF08950F931F93CF93DF930A
:1016F000C62FD42F122FFC0185818823A9F0609377
:1017000011060E94680B9093100680930F06C77015
:1017100081E001C0880FCA95EAF70E94B309DF9102
:10172000CF911F910F91089580911106681335C0D4
:1017300080910F06909110060E94590B883C9105EC
:1017400060F500E20D0FCD17B9F080E28C0F883004
:1017500040F4C77081E001C0880FCA95EAF70E9483
:10176000A809083008F581E09D2F977001C0880F07
:101770009A95EAF70E94B309812F0E94E709812F09
:101780000E94BD09083058F6D77081E001C0880F6B
:10179000DA95EAF70E94A809C2CFC77081E001C0BC
:1017A000880FCA95EAF7F6CF812F0E94E709812FAB
:1017B0000E94BD09B4CFACE0B0E0E1EEFBE00C94D8
:1017C000D9144F83588769877A878B879C879111B3
:1017D0001092650186E0FE013796DE0111960190B8
:1017E0000D928A95E1F78D81882341F021E04981AE
:1017F0005A816B817C819E810E94F2058D818823B4
:1018000009F121E049815A816B817C819E810E948E
:10181000F2058C01FC01E851FC47E730F10568F561
:10182000EC5EF34F0C9455152A0C2E0C1B0C260C59
:10183000320C360C3A0C26E241EE61EECE010196F6
:101840000E94740B2C96E5E00C94F51427E245EE0B
:1018500065EEF4CF26E241EE60EEF0CF27E245EEF2
:1018600064EEECCF26E241EE62EEE8CF27E245EEF1
:1018700066EEE4CF28E241E0EBCF8E81882309F4C5
:10188000A0C210921106980130572332310508F09A
:1018900080C284E090E00E940B15909387018093B2
:1018A0008601F801E150F047E232F10508F026C068
:1018B000E45AF34F0C945515B80C2D0DC00C8A0C3E
:1018C0008E0CC40C920CC80CD40C9E0C260DA20CD1
:1018D000D80CA60CDC0C040DAA0CE00C0B0DB00C03
:1018E000E60CEE0C960CCC0C9A0CD00CB40CEA0C5A
:1018F000FA0C140D240D840CBC0C340D809186015F
:1019000081608093860195C0809187018860809373
:1019100087018FC0809186018260F3CF809186011C
:101920008460EFCF809186018860EBCF8091870142
:101930008160EDCF809187018260E9CF809186013F
:101940008061DFCF809186018062DBCF809186014C
:101950008064D7CF0E94DF06809186018068D1CF56
:10196000809186018860DCCF809187018260E0CF22
:10197000809186018E7FC5CF80918701877FC7CFF9
:10198000809186018D7FBDCF809186018B7FB9CFFD
:1019900080918601877FB5CF809187018E7FB7CFF9
:1019A000809187018D7FB3CF809186018F7EA9CFF3
:1019B000809186018F7DA5CF809186018F7BA1CFFD
:1019C0000E94DF06809186018F779BCF80918601F0
:1019D000877FDCCF809187018D7FE0CF809186016A
:1019E00082FB992790F921E0922790FB82F990FBE6
:1019F00083F987CF80918701982F909591708E7F82
:101A0000892B90FB81F983CF90918601892F8F7B61
:101A100096FF806476CF0E94DF0690918601892F21
:101A200097FB87F980586DCF61E08EE090E00E94CF
:101A30002115609186017091870184E090E00E94F9
:101A40003F150E94DF06FECE60E0EFCF9091860149
:101A5000892F8F7E94FF806154CF90918601892FCA
:101A60008E7F90FF81604DCF90918701892F877F76
:101A700093FF88604CCF89E2E4E3F1E0928189131F
:101A800001C01282319621E0EA33F207B9F796C11C
:101A900001304CE7140749F103305CE71507F9F012
:101AA00001151C4721F50E94DF062FEF44E35CE09F
:101AB000215040405040E1F700C0000087E797E721
:101AC000909301088093000888E19AE00FB6F8949B
:101AD000A895809360000FBE90936000FFCF6FEFDA
:101AE0007FEF90E080E00E943F150E9492090981FB
:101AF0001A818823F1F0C8010E942905F82E682F69
:101B0000C8010E949005B8018F2D0E9425040E94F3
:101B10004304182FF82E2E81092F02950F700830DC
:101B200009F467C058F4023008F108500230C8F5D3
:101B300095C0C8010E945D05F82EE5CF093009F473
:101B4000E7C00C3090F782EF181709F4F2C043EFAA
:101B5000141709F4F6C051EF151305C1892F8F71C1
:101B6000222309F4EBC00E94DD05DFCF092F0F709F
:101B7000907F11F00295007F812F222311F1002325
:101B800069F090E2910F983010F0111114C080911B
:101B90006601082B009366010E94B806812F0E94FF
:101BA000E70920E049815A816B817C818D819E818A
:101BB0000E94F20547CE80916501082B00936501D4
:101BC000EBCF0E94BD09002361F30095105E183031
:101BD00010F0F11008C0809166010823009366019F
:101BE0000E94B806DECF809165010823009365014D
:101BF000F7CF892F837009F044C021112FC0812FA6
:101C0000829586958770880F880F212F2F7030E07E
:101C1000082E02C0220F331F0A94E2F750E040E082
:101C200014FF09C04FE050E002C0440F551F8A95D1
:101C3000E2F7409550959695969593709230B9F04D
:101C400090F46091820170918301913051F0C9014B
:101C5000842B952B862397230E94ED050E940C036D
:101C6000A0CF262B372BC901842B952BF5CFC9018B
:101C7000842B952B20918201309183018227932719
:101C8000EBCF8695222311F0892F8170882331F3C1
:101C9000812F829586958770880F880F212F2F704E
:101CA00030E0082E02C0220F331F0A94E2F750E002
:101CB00040E014FF09C04FE050E002C0440F551F40
:101CC0008A95E2F740955095969596959370923047
:101CD000A9F080F46091840170918501913041F008
:101CE000C901842B952B862397230E94C605B6CF66
:101CF000262B372BC901842B952BF7CFC901842BB9
:101D0000952B209184013091850182279327EDCF77
:101D1000092F0F70222339F0802F0E94DD05812FBB
:101D20000E94B3099BCF0E94A809802F0E94CB0577
:101D300095CF892F8F71222309F415CF0E94CB05EF
:101D4000F4CE222369F09F7121E030E0A90102C0A6
:101D5000440F551F9A95E2F7CA010E94C605E5CEC9
:101D600090E080E0FACF222321F0812F0E94E70942
:101D7000DCCE59E3151309C08FEF97EE23E08150B5
:101D800090402040E1F700C00000812F0E94BD0973
:101D9000CCCE06314CE7140709F07ACE809166016B
:101DA0008A7A91E009F490E090933C0165E3811117
:101DB00001C069E284E391E00E94F2020E94B80649
:101DC00041CD06315CE7150709F091CE80913C01C9
:101DD000882309F450CE85E34FCE4F925F927F92D5
:101DE0008F929F92AF92BF92CF92DF92EF92FF922B
:101DF0000F931F93CF93DF93CDB7DEB72E970FB618
:101E0000F894DEBF0FBECDBF8E010F5F1F4F8EE077
:101E1000F80111928A95E9F72FE0E22E21E0F22EE7
:101E20003AE1832E31E0932ECC24C394D12CAA2402
:101E3000A394B12CF70181917F018F3F09F44FC02A
:101E4000F894E82FE295EF70F0E021A18F70A501E2
:101E500002C0440F551F8A95E2F7CA01922F982BB2
:101E600091A392A18095892382A3789400C09AE1DE
:101E7000492E91E0592ED801B60160957095F20176
:101E800071902F018D919D91AD0142505109FFEF4D
:101E90007F1609F45CC0272D22952F7030E0F901E0
:101EA00020A130E0F72DFF7002C035952795FA95F7
:101EB000E2F720FD4CC08C299D29FA019183808393
:101EC000F1E24F16F1E05F06D1F6F701319780811C
:101ED0008F3F11F00E941B0320EA2A95F1F7CC0CEA
:101EE000DD1C8E149F0409F0A5CF4EE050E0B80130
:101EF00084E791E00E945B15892B71F18EE0F80177
:101F0000A4E7B1E001900D928A95E1F781E080931A
:101F100073010E94680B909372018093710110E02D
:101F2000812F2E960FB6F894DEBF0FBECDBFDF9186
:101F3000CF911F910F91FF90EF90DF90CF90BF90C6
:101F4000AF909F908F907F905F904F9008958623E1
:101F50009723B3CF10E01FC0109173011123F9F242
:101F600080917101909172010E94590B0597B8F20E
:101F70004EE050E064E771E088E891E00E945B1574
:101F8000892B41F38EE0E4E7F1E0A8E8B1E00190AD
:101F90000D928A95E1F710927301C2CFA6E0B0E0EE
:101FA000E4EDFFE00C94DA140E94680B8C01809140
:101FB0006F01909170018017910781F019821A8248
:101FC0000E94680B682F49815A81792F80E090E048
:101FD0000E94DB0B1093700100936F012696E4E0E2
:101FE0000C94F6141F920F920FB60F9211248F9338
:101FF0009F93AF93BF938091F305811113C080919C
:10200000F4059091F505A091F605B091F70541967C
:10201000A11DB11D8093F4059093F505A093F605DD
:10202000B093F705BF91AF919F918F910F900FBE25
:102030000F901F901895AAE0B0E0E1E2F0E10C9457
:10204000CC1485B7806885BF85B7806885BF84B7A5
:10205000877F84BF0FB6F894A8958091600088614F
:1020600080936000109260000FBE80E890E00FB691
:10207000F89480936100909361000FBE89E193E032
:1020800090933301809332010E94BA010E94D901DA
:102090008091E20084608093E200789480910E0643
:1020A000882399F01091E9001F708091EC0080FF67
:1020B00070C180E8182B1092E9008091E80083FD40
:1020C0000E94ED061F701093E90082E084BD93E04A
:1020D00095BD9AEF97BD80936E000FE011E0D80197
:1020E0008D918D018F3F11F00E941B03B1E00A31E9
:1020F0001B07A9F70AE111E081E2E82E81E0F82E42
:10210000F80181918F018F3F11F00E941B03E016AF
:10211000F106B1F78EE0E8E8F1E0DF01282F1D922B
:102120002A95E9F7E4E7F1E0DF011D928A95E9F7E6
:1021300090E080E00E940B15853E9E4F09F461C03F
:1021400065EE7EEF90E080E00E943F1560E082E067
:1021500090E00E94211581E090E0909383018093AC
:10216000820161E083E090E00E94211560E074E16B
:1021700084E090E00E943F1560E086E090E00E94DD
:10218000211560E087E090E00E94211540E050E0DA
:10219000BA0188E090E00E94331560E083E290E0AD
:1021A0000E94211560E08CE090E00E94211560E023
:1021B0008DE090E00E94211519821A821B821C82F8
:1021C0001D821E821F82188648E050E067E170E0A1
:1021D000CE0101960E94111540E050E0BA018FE156
:1021E00090E00E94331540E050E0BA018FE090E0AB
:1021F0000E94331540E050E0BA0183E190E00E9474
:10220000331582E090E00E9403158093960184E0EC
:1022100090E00E940B15909387018093860183E0E4
:1022200090E00E94031590E00E94ED051092E605F3
:1022300080E48093A5010E94B01369E070E087EF0D
:1022400091E00E9468068823C9F18091E60565E067
:1022500070E081FDA0C082EF91E00E9468068823B3
:1022600069F16DE070E080EE91E00E9468068823DD
:1022700029F10E94E602605A75418F4F9F4F60938B
:10228000EB057093EC058093ED059093EE05E6EE7B
:10229000F1E080E094E0DF019C011D92215030408C
:1022A000E1F78FEF9FEF9093E9058093E80581E0D8
:1022B0008093F0058093EF051092E70580E091E0B0
:1022C0009093F2058093F105B8E12B2E312C10E4A8
:1022D000712E80910E0612E1853009F497C00E949C
:1022E000ED0EF7E9AF2EF1E0BF2EA8E88A2EA1E0AF
:1022F0009A2ED401F501219131918D919D9145EA5C
:1023000051E04E175F0709F48BC02817390799F37E
:10231000612CD4010D911D914D01F501C190D19019
:102320005F01C016D10661F1512CEE24E394F12C2B
:10233000C026D126C6018E219F21892BB9F0598252
:102340006A820E94680B9C838B83F1E0FD8391E09D
:1023500098012E213F21232B09F490E09E8349818F
:102360005A816B817C818D810E94DB0B5394EE0C32
:10237000FF1C2BE05212DECFF50132971183008350
:10238000639437E06312C5CF0E94E602DD24D39444
:102390004EC080E08FCE8DEE91E05FCF80910E0633
:1023A000843019F10E9475061092F3050FB6F89467
:1023B000A895209260000FBE7092600083B7817F65
:1023C000846083BF83B7816083BF7894889583B727
:1023D0008E7F83BF0FB6F894A895809160008861C6
:1023E00080936000109260000FBE809104068823E5
:1023F00069F00E94ED0EE8E8F1E081919191892B5E
:1024000009F04CC131E0E639F307B9F780910E06C7
:10241000853009F4C3CF0E94DF060E940C035FCF12
:102420002817390709F074CF0E94CE0FD12C809164
:10243000F005882309F423C18091E8059091E9050E
:10244000892B09F403C18091E7058111FFC00E9427
:1024500090062091E8053091E9052115310509F430
:10246000F5C080E041E050E0082F10E07A01082E2E
:1024700002C0EE0CFF1C0A94E2F7B701622373233B
:10248000672B11F48F5FF0CF9091E60590FFBCC0F1
:10249000C80146E0880F991F4A95E1F79C01220F79
:1024A000232F221F330B3195220F220F220F63E0BF
:1024B000969587956A95E1F780958870806B8093F3
:1024C0000B0181E0820F8F7080930C0122952F7099
:1024D000206120930D0124E630E044E050E06AE002
:1024E00071E088E70E94E413892B09F0AFC0A801CE
:1024F00036E0440F551F3A95E1F78091E60580FFDD
:102500008DC0E6EAF1E0DF01272D1D922A95E9F75B
:1025100089E291E09A87898761E271E08824839457
:10252000A985BA858D91BA87A987FB014190BF0122
:10253000440E552E511C92012A513E4F290190E024
:102540008A559E4FFC0127E0B22E9F01281B390BB4
:10255000982C01C0990C2A95EAF78201A12CD80188
:10256000CD908D01C9202B2D2A192770622E022EA5
:10257000000C330BBC2D01C0BB0F6A94EAF76B2E25
:102580003195219531092770332701C0C6942A95CA
:10259000EAF76C28C0806C286082A39428E0A2121D
:1025A000DECFBA9431963FEFB312CFCF89859A85AB
:1025B0008153914009F0B4CF86EAA82E81E0B82E6D
:1025C000C12C04E610E028E030E0A50160E488E7D3
:1025D0000E946E14892BD1F5C394B8E0CB1651F14B
:1025E00080910B018F5F80930B0124E630E044E083
:1025F00050E06AE071E088E70E94E413892B31F52E
:10260000E8E0AE0EB11CDDCF806B80930B0141E0A2
:1026100040930C0150E150930D015DCF4A515E4F44
:1026200004E610E020E430E060E488E70E946E14E5
:10263000892B61F4E094F0948091E8059091E9058C
:10264000E822F922F092E905E092E8058091EF0591
:102650008823A9F00E94E6020091EB051091EC0599
:102660002091ED053091EE05601B710B820B930BF1
:102670006F3F7F4F8F4F9F4710F40E947506D11018
:102680000E9490060E940C039091EA05891709F4B4
:1026900020CE8093EA050E94E6021BCE20E129BDF0
:1026A00019BD09B400FEFDCF8091D8008F7D8093C5
:1026B000D8008091E00082608093E0008091E0008B
:1026C00081FDFCCF0E94DF06A1CEEF92FF920F9317
:1026D0001F93CF93DF93182FEB011092BC0084EA75
:1026E0008093BC000E94680B7C018091BC0087FF36
:1026F0000DC08091B900887F8830A9F08091B90021
:10270000887F803181F08FEF9FEF08C0C7010E9462
:10271000590BC817D90748F78EEF9FEFCDB7DEB733
:10272000E6E00C94F4141093BB0084E88093BC00A2
:102730000E94680B8C018091BC0087FF0AC08091C9
:10274000B900887F883111F08034E9F690E080E0AC
:10275000E5CFC8010E94590BC817D90760F7DCCF35
:102760001092B9008CE08093B80008950F931F93E6
:10277000CF93DF93EB018093BB0084E88093BC0090
:102780000E94680B8C018091BC0087FF11C02091D2
:10279000B900287F81E090E0283211F490E080E0D9
:1027A000919581959109DF91CF911F910F91089596
:1027B000CF3FDC0741F3C8010E94590BC817D90766
:1027C00010F78EEF9FEFEFCFB0E0A0E0EAEEF3E17D
:1027D0000C94D114782E5B016A0189010E94680B68
:1027E0004C01C1E0D0E00431110558F0C5E0D0E063
:1027F0000F3F100731F0C80164E170E00E94B81487
:10280000EB01BE01872D0E9465137C0197FF09C073
:102810000F3F1007B1F3C4010E94590B08171907A5
:1028200080F7E501CA0CDB1CCC15DD0511F0F7FEC5
:1028300009C084E98093BC00C701CDB7DEB7EDE0E5
:102840000C94ED14B80189910E94B6137C01ECCF71
:10285000B0E0A0E0EEE2F4E10C94D114782E5B013C
:102860006A0189010E94680B4C01C1E0D0E004318B
:10287000110558F0C5E0D0E00F3F100731F0C80156
:1028800064E170E00E94B814EB01BE01872D0E9444
:1028900065137C0197FF09C00F3F1007B1F3C40116
:1028A0000E94590B0817190780F7E501CA0CDB1CB9
:1028B000CC15DD0511F0F7FE09C084E98093BC005A
:1028C000C701CDB7DEB7EDE00C94ED14FE018491A5
:1028D000B8010E94B6137C012196EACFB0E0A0E0D7
:1028E000E4E7F4E10C94D014682E762E5A016901C5
:1028F0000E94680B4C01C1E0D0E00431110558F092
:10290000C5E0D0E00F3F100731F0C80164E170E08E
:102910000E94B814EB01BE01862D0E9465137C0154
:1029200097FF1DC00F3F1007B1F3C4010E94590B60
:102930000817190780F784E98093BC00C701CDB759
:10294000DEB7EEE00C94EC14B80189910E94B61346
:102950007C01CC16DD0679F3F7FEF6CFECCFB8019B
:10296000872D0E94B6137C01E501CA0CDB1CF1CF58
:10297000AA1BBB1B51E107C0AA1FBB1FA617B707A5
:1029800010F0A61BB70B881F991F5A95A9F78095C1
:102990009095BC01CD0108952F923F924F925F9286
:1029A0006F927F928F929F92AF92BF92CF92DF925F
:1029B000EF92FF920F931F93CF93DF93CDB7DEB7C4
:1029C000CA1BDB0B0FB6F894DEBF0FBECDBF099458
:1029D0002A88398848885F846E847D848C849B84AF
:1029E000AA84B984C884DF80EE80FD800C811B81BD
:1029F000AA81B981CE0FD11D0FB6F894DEBF0FBEEC
:102A0000CDBFED010895F999FECF92BD81BDF89A31
:102A1000992780B50895A8E1B0E042E050E00C9419
:102A20004715DC01A40FB51F4150504048F0CB01C1
:102A3000840F951F2E910E94221541505040D0F7CF
:102A40000895262FF999FECF92BD81BDF89A01977E
:102A500000B4021639F01FBA20BD0FB6F894FA9AE6
:102A6000F99A0FBE08950396272F0E9422150E94FF
:102A70002115252F0E942215242F0C942215019632
:102A8000272F0E9422150C942115DC01CB01FC019B
:102A9000F999FECF06C0F2BDE1BDF89A319600B4B7
:102AA0000D9241505040B8F70895EE0FFF1F05906A
:102AB000F491E02D0994FB01DC0104C08D9101909B
:102AC000801921F441505040C8F7881B990B089594
:042AD000F894FFCFA8
:102AD400E3025806E002E202E10200B0001001C283
:102AE40067663635349796943793F0F1F4F5F6F734
:102AF400C60008101820283038383028201810084C
:022B04000000CF
:00000001FF
