:100000000C940A010C9427010C9427010C942701ED
:100010000C9427010C9427010C9427010C942701C0
:100020000C9427010C9427010C943D0E0C94010EA6
:100030000C943A0F0C9427010C9427010C9427017F
:100040000C9427010C9427010C9427010C94270190
:100050000C9427010C94140F0C9427010C94270185
:100060000C9427010C9427010C9427010C94270170
:100070000C9427010C9427010C9427010C94270160
:100080000C9427010C9427010C9427010C94270150
:100090000C9427010C9427010C9427010C94270140
:1000A0000C9427010C9427010C942701290035009A
:1000B0002B003900E100E00011000D0018002400C1
:1000C00040003A001E00140004006400E20010002A
:1000D0000E000C00250041003B001F001A00160016
:1000E0001D00E30036000F001200260042003C0015
:1000F0002000080007001B002C003700330013000D
:10010000270043003D0021001500090006005000B3
:10011000380034002F002D0044003E00220017005C
:100120000A00190051005200320030002E00450034
:100130003F0023001C000B0005004F00E6002800D4
:100140002A004C00460005010906A101050719E037
:1001500029E71500250195087501810295017508AB
:1001600081010507190029FF150026FF0095067576
:100170000881000508190129051500250195057557
:10018000019102950175039101C00902220001014C
:1001900000A0FA0904000001030101000921110176
:1001A000000122440007058103080001120100023A
:1001B00000000008EDFEFEBA0300010200013A0350
:1001C000420061006C007400680061007A00610008
:1001D000720020006B006500790062006F00610012
:1001E00072006400200076006500720073006900F0
:1001F0006F006E0020003300000014034200410035
:100200004C005400480041005A00410052000000D8
:100210000403090411241FBECFEFDAE0DEBFCDBF17
:1002200011E0A0E0B1E0E8ECF3E202C005900D922D
:10023000AE31B107D9F721E0AEE1B1E001C01D92C6
:10024000A33BB207E1F70E94630F0C94E2110C94F8
:100250000000982F9093E900562F40E022E0891784
:1002600031F05091EC002091ED004091F00021FD23
:1002700007C09F5F973071F78093E90081E0089590
:100280003091EB003E7F3093EB003091ED003D7FED
:100290003093ED003091EB0031603093EB005093E0
:1002A000EC002093ED004093F0002091EE0027FD3C
:1002B000E0CF80E00895E8EDF0E080818E7F8083DC
:1002C0001092E2001092DA001092E100A0EEB0E08D
:1002D0008C9181608C9380818F77808319BCA7ED8E
:1002E000B0E08C918E7F8C9380818F7E8083109282
:1002F00095010895B0E0A0E0E0E8F1E00C94A811C9
:10030000C8EDD0E088818F7E8883E7EDF0E08081C2
:100310008160808384E082BF81E080939501888141
:100320008E7F888302EE10E0F80110821092DA00CE
:1003300081EEC82ED12CF601108288818F778883B8
:1003400088818068888388818F7D888319BC10921A
:10035000AB011092A2011092A1011092A00190EEA7
:10036000E92EF12CF70180818B7F80838881816069
:10037000888360E080E00E942901F60180818E7F01
:100380008083F801808181608083808188608083A0
:10039000F70180818E7F8083888180618883CDB7DB
:1003A000DEB7E8E00C94C4112091E4003091E50040
:1003B00085E69091EC0090FF06C09091E80090FFD8
:1003C00006C080E008959091E80092FDFACF9091E8
:1003D000AB01992391F0953091F09091EB0095FD50
:1003E00010C04091E4005091E5002417350709F34F
:1003F00081509A01F1F684E0089582E0089583E047
:10040000089581E008958091A30187FF13C0809132
:10041000E80082FF06C08091E8008B778093E800B7
:1004200004C08091AB018111F2CF08958091AB019E
:100430008823D9F38091E80080FFF8CF8091E8000D
:100440008E77ECCFFC018091A9019091AA018617CB
:100450009707A0F06115710529F49091E8009E7747
:100460009093E80090E06115710551F4911108C076
:100470008091E80082FF35C080E00895BC01F2CF92
:100480008091AB018823C9F18530C9F18091E800E2
:1004900083FD31C08091E80082FDEACF8091E800C1
:1004A00080FFE1CF2091F3008091F200322F282FBE
:1004B0006115710519F02830310558F091E02830A8
:1004C000310509F090E02091E8002E772093E800B4
:1004D000CACF81918093F100615071092F5F3F4F26
:1004E000E7CF8091AB01882341F0853041F08091C6
:1004F000E80083FFBDCF81E0089582E0089583E0A6
:1005000008950895089508958091970108952FB74B
:10051000F8948091AC019091AD01A091AE01B091A1
:10052000AF012FBF08959C01FC0132969FEF80E040
:100530004191461751F09F3F19F4411101C0982F86
:100540008F5F8630A9F79F3F09F40895290F311D69
:1005500097FD3A95F90162830895E0919201F09137
:100560009301309729F00190F081E02D09950895CD
:1005700080E0089580E00895F894E82FE295EF7008
:10058000F0E031A1282F2F7081E090E001C0880FAA
:100590002A95EAF7982F9095932391A392A1892BFE
:1005A00082A3789408959091720192FF10C041E067
:1005B000282F2471243009F040E031E0282F2871E1
:1005C000283009F030E0431711F02CE0822793FF28
:1005D00010C041E0282F2471243109F040E031E0BF
:1005E000282F2871283109F030E0431711F02CE052
:1005F00082273091730130FF10C051E0282F217104
:10060000213009F050E041E0282F2871283009F00E
:1006100040E0541711F029E0822731FF10C041E07B
:10062000282F2171213109F040E031E0282F287175
:10063000283109F030E0431711F029E0822794FDBA
:10064000877E089582389105B9F1B0F48133910520
:1006500009F47DC048F48932910509F46DC08A32ED
:10066000910509F479C008958533910509F45FC0B7
:100670008933910509F10895833E9105D9F138F444
:10068000803E910529F1823E910579F10895863EDB
:100690009105D9F1873E910509F43EC0843E91054C
:1006A00041F52091730121FF24C08091720184FDE6
:1006B00019C087EE90E0089520917201237009F02F
:1006C00056C02091730123FF14C089E290E0089581
:1006D0002091720120FD38C03091730130FF09C0B4
:1006E00024FF3FC090E080E008952091720122FD38
:1006F000F7CF08952091720122FD36C03091730129
:1007000030FD35C024FDEECFF4CF2091720123FFE0
:10071000F0CF24FDE7CFCDCF2091720123FD2AC079
:100720003091730131FFEECF84EE90E00895209177
:10073000720125FDCACF08952091720125FD1DC0CB
:100740002091730123FFD5CF89E390E00895209194
:10075000720126FD15C008952091720126FD13C077
:10076000089583EE90E0089582EE90E0089580EE83
:1007700090E0089586EE90E0089585E390E0089576
:100780008AE290E0089581E390E0B3CF773090F46F
:100790006B3080F4811111C0E62FF0E08BE0789F80
:1007A000E00DF11D1124EE0FFF1FE455FF4F859161
:1007B0009491089580E090E0089581E0FCCF0F933C
:1007C0001F93CF93DF930E942203EC01811522E552
:1007D0009207D8F5C11580E5D80708F0B9C0C83E22
:1007E000D105C8F4C03ED10580F4C53AD10548F41E
:1007F000C430D10550F4C130D10539F0D0E0C0E0AB
:1008000004C0CD3CD105D0F3D065CE01DF91CF91AE
:100810001F910F910895C11521E0D20778F38E0141
:100820001127C11580E2D80708F0AAC08D2F0E94B9
:10083000D302C82FC8010E942203D0E0DC2FCC27AE
:10084000CC27DF71C82BD92BE0CF80369245F0F44E
:10085000C03482E5D80708F05BC0C03222E5D20779
:1008600008F04FC02C2F2695269580E2289F9001F6
:1008700011248C2F8370C1E0D0E002C0CC0FDD1FAB
:100880008A95E2F7C22BD32BDD68BFCFC03C82E54F
:10089000D807E0F4C03A22E5D20708F04EC0C038CD
:1008A00082E5D80708F0AACF2C2F237081E090E0D2
:1008B00002C0880F991F2A95E2F79A68C695C695D7
:1008C000C77020E2C29FE0011124BCCFC03E22E5E8
:1008D000D20708F093CF9E0143E0220F331F4A95C1
:1008E000E1F7207E3327CE0183709927C1E0D0E065
:1008F00002C0CC0FDD1F8A95E2F7C22BD32BDA683A
:1009000084CFCF71D0E0DC2FCC27C16FD06A7DCFF0
:100910002C2F26952695277080E2289F9001112480
:100920008C2F8370C1E0D0E002C0CC0FDD1F8A9510
:10093000E2F7DC68C22BD32B68CF8C2F8F710E941B
:10094000D302C82FD0E0DC2FCC27CC27DF715DCFBE
:100950008C2F8F710E94D30295E0D695C7959A95FA
:10096000E1F7CF70D0E0DC2FCC27282F30E084FFD8
:1009700005C084E0220F331F8A95E1F7D069DACFF2
:10098000C8010E942203EC0140CFB0E0A0E0EBECF4
:10099000F4E00C94A7117C01009170011091710199
:1009A00080916E0190916F01082B192BCFE0D0E060
:1009B000CC24C394D12CBC2EC6010C2E02C0880FAF
:1009C000991F0A94E2F780239123892B49F42197F8
:1009D00090F7B12C8B2DCDB7DEB7E9E00C94C311A5
:1009E000B7018C2F0E94C6030E94DF03019779F3A1
:1009F000F1CF973078F58B3068F5E82FF0E08BE099
:100A0000989FE00DF11D11249E2F977083E0F695BD
:100A1000E7958A95E1F7EE0FFF1FEE0FFF1FE75DE9
:100A2000FE4F50E040E080E0219130E0092E02C00E
:100A3000369527950A94E2F721703327042E01C0DA
:100A4000220F0A94EAF7822B4F5F5F4F4430510523
:100A500059F7089580E00895973098F58B3088F520
:100A6000E82FF0E08BE0989FE00DF11D11248E2F10
:100A7000877041E001C0440F8A95EAF783E0F6955C
:100A8000E7958A95E1F7EE0FFF1FEE0FFF1FE75D79
:100A9000FE4F30E020E070E05191DF011197CB0173
:100AA000022E02C0969587950A94E2F7817081958F
:100AB0008527842385278C932F5F3F4F2430310572
:100AC00059F708959093710180937001089521E082
:100AD00030E002C0220F331F8A95E2F7209530954F
:100AE0008091700190917101822393230E9462058D
:100AF000089521E030E002C0220F331F8A95E2F70B
:100B00008091700190917101822B932B0E9462055C
:100B1000089590936F0180936E010895A6E0B0E070
:100B2000E4E9F5E00C94AD1149835A8349815A8177
:100B30009923A1F0222391F0CA010E94C504182F25
:100B4000682F89819A810E942C0569817A81812F81
:100B50000E94C6032696E3E00C94C911CA010E94C4
:100B6000F904182FF2CF0F931F93CF93DF938C01CB
:100B70008091AB01843059F581E08093E9008FEFDB
:100B80009091E800815095FD06C095ED9A95F1F79A
:100B900000008111F5CF8091E80085FF18C00E9408
:100BA000D40181110FC0C8E0D0E08091E80085FD3C
:100BB00013C08091E8008E778093E8000E94D401F2
:100BC000882399F38091E8008E778093E800DF9185
:100BD000CF911F910F910895F80181918F0180931A
:100BE000F100219711F7EECFCF93DF93EC010E9434
:100BF000B30588E0FE01A8E9B1E001900D928A9565
:100C0000E1F7DF91CF9108958091520190915101C8
:100C1000892B8093200148E050E063E571E080E299
:100C200091E00E94D511892BA9F088E0E0E2F1E083
:100C3000A3E5B1E001900D928A95E1F7E091920170
:100C4000F0919301309731F00280F381E02D80E242
:100C500091E00995089510925201E2E2F1E086E0F8
:100C6000DF011D928A95E9F7109251010E94040656
:100C70000895AAE2B0E0EFE3F6E00C94AD11E3EAE8
:100C8000F1E08091F100819321E0EB3AF207C9F79E
:100C90008091A401833009F47DC008F5813009F406
:100CA00054C0823009F4BEC08091E80083FFF8C0D0
:100CB0008091A3019091A4019A3008F0F1C0E92F2E
:100CC000F0E0EB59F94F0C949811230749075007AE
:100CD00049075007A107C3075007AF08BC088A306F
:100CE00009F48FC08B3009F472C08930E9F6809125
:100CF000A3018132C9F68091A7019091A801892BA7
:100D000099F68091E800877F8093E8008091E80061
:100D100082FF3BC08091F3009091F20089279827D1
:100D20008927029731F48091F100813011F08630EB
:100D300021F48091F100809397018091E8008B77F6
:100D40008093E8000E940302AFCF8091A301813A13
:100D500009F0AACF8091E800877F8093E800809116
:100D6000A7019091A801892B61F060E090E080E0FC
:100D700070E00E9422028091E8008B778093E80067
:100D800093CF68E088E991E0F3CF8091AB018111C6
:100D9000BDCF8ACF8091A301813A09F085CF8091A0
:100DA000A7019091A801892B09F07ECF8091E800DE
:100DB000877F8093E8008091E80080FFFCCF8091DE
:100DC0000A018093F1008091E8008E77B9CF80917D
:100DD000A301813209F068CF8091A7019091A80109
:100DE000892B09F061CF8091E800877F8093E8002C
:100DF0000E9403028091A50180930A010E942B06A4
:100E000053CF8091A301813209F04ECF8091E80049
:100E1000877F8093E8000E9403028091A60180935F
:100E2000960142CF8091A301813A09F03DCF809194
:100E3000E800877F8093E8008091E80080FFFCCF86
:100E400080919601BECF803889F0823849F5809133
:100E5000A7018F70873020F58093E9008091EB0027
:100E600085FB882780F91092E90006C08091A001D7
:100E70009091A101911182609091E800977F9093E9
:100E8000E8008093F1001092F1008091E8008E77E5
:100E900027C0282F2D7F21F48823A1F0823029F14B
:100EA0008091E80083FF0AC08091E800877F8093EB
:100EB000E8008091EB0080628093EB00AA96E3E06B
:100EC0000C94C9118091A501813051F7933009F03C
:100ED00080E08093A1011092E9008091E800877F73
:100EE0008093E8000E940302DBCF8091A50181116D
:100EF000F2CF8091A7018F702FEF280F263080F658
:100F00008093E9002091EB0020FFE5CF933031F48E
:100F10008091EB0080628093EB00DDCF9091EB003D
:100F200090619093EB0021E030E001C0220F8A95A0
:100F3000EAF72093EA001092EA008091EB008860C3
:100F4000EACF8111ADCF1091A5011F778091E30009
:100F50008078812B8093E3008091E800877F8093E5
:100F6000E8000E9403028091E80080FFFCCF80919E
:100F7000E30080688093E30083E0111101C082E008
:100F80008093AB018DCF8058823008F089CF80915B
:100F9000A5019091A6018C3D23E09207A1F583E085
:100FA0008A838AE289834FB7F894DE01139620E0A2
:100FB0003EE051E2E32FF0E050935700E49120FF30
:100FC00003C0E295EF703F5FEF708E2F90E0EA3044
:100FD000C0F0C7968D939D932F5F243159F74FBF73
:100FE0008091E800877F8093E8006AE270E0CE019C
:100FF00001960E9422028091E8008B778093E8009E
:101000004FCFC096E7CF4091A7015091A801292F5B
:1010100033272330310509F43FC078F521303105FD
:1010200009F465C082E290E0EAE8F1E0223031059F
:1010300009F036CF2091E800277F2093E800209127
:10104000A9013091AA018217930708F49C0140E09E
:101050002115310509F050C041114EC08091E800C2
:1010600082FDC9CF8091AB01882329F2853019F226
:101070008091E80083FFF2CFBECF2132310579F1B4
:101080002232310509F00CCF452B09F009CF84E459
:1010900090E0E6E4F1E0CECF992781309105B9F0F8
:1010A00058F0029709F0FCCEEEEBF1E0E4918E2FC0
:1010B00090E0EEEBF1E007C0E0E1F2E0E4918E2F8A
:1010C00090E0E0E1F2E0009709F4EACEB3CFEAEF76
:1010D000F1E0E4918E2F90E0EAEFF1E0F4CF452BC0
:1010E00009F0DECE89E090E0ECE9F1E0A3CF82E107
:1010F00090E0ECEAF1E09ECF8091AB01882309F407
:101100007ACF853009F477CF8091E80083FD73CFE3
:101110008091E80082FDA2CF8091E80080FF98CF07
:101120008091F3009091F200892798278927211553
:10113000310519F08830910550F041E0089709F029
:1011400040E08091E8008E778093E80081CF449161
:101150004093F1003196215031090196E8CF803853
:1011600009F09ECE8091E800877F8093E80080910F
:10117000A2018093F10089CE811192CE1091A50138
:10118000123008F08DCE8091E800877F8093E800D0
:101190001093A2010E940302112351F084E0809376
:1011A000AB0161EC81E00E9429018091AB0178CE16
:1011B0008091E30087FDF2CF81E0F1CF0E942B0602
:1011C0002FEF84E39CE0215080409040E1F700C085
:1011D000000088E19AE00FB6F894A895809360002B
:1011E0000FBE90936000FFCF882341F080959091CF
:1011F00052018923809352010E9404060895882396
:1012000039F090915201892B809352010E9404067B
:101210000895882391F09CEF980F913A78F4E0E2DA
:10122000F1E026E231E09281891301C01282319609
:101230002E173F07C1F70E940406089590E2980F09
:101240009830D8F7877021E030E0A90102C0440F40
:10125000551F8A95E2F7CA01809590915201892322
:1012600080935201E8CFCF938823B9F0C82F8CEF39
:101270008C0F813A00F5A2E2B1E0E0E2F1E08D915D
:10128000C81769F081E0A832B807C9F76C2F80E26F
:1012900091E00E9493020E940406CF9108958281FA
:1012A000C81301C01282319681E0E632F807B9F71F
:1012B0000E940406EBCF80E28C0F883070F7C77075
:1012C00021E030E001C0220FCA95EAF78091520177
:1012D000822B80935201DFCF0F931F93CF93DF9325
:1012E000C62FD42F122FFC0185818823A9F060938B
:1012F000B2010E9487029093B1018093B001C77040
:1013000081E001C0880FCA95EAF70E94FF08DF91CB
:10131000CF911F910F9108958091B201681341C040
:101320002091B0013091B1014FB7F8948091AC0198
:101330009091AD01A091AE01B091AF014FBF821B62
:10134000930B883C910568F500E20D0F6D17B9F01D
:1013500080E2860F883040F4C77081E001C0880FBA
:10136000CA95EAF70E94F408083010F581E09D2F35
:10137000977001C0880F9A95EAF70E94FF08812FA5
:101380000E943309812F0E940909083008F0BFCF5D
:10139000D77081E001C0880FDA95EAF70E94F4085F
:1013A000B6CFC77081E001C0880FCA95EAF7F6CFC3
:1013B000812F0E943309812F0E940909A8CFACE038
:1013C000B0E0E5EEF9E00C94AB114F8358876987E4
:1013D0007A878B879C8791111092510186E0FE01DC
:1013E0003796DE01119601900D928A95E1F78D8175
:1013F000882341F021E049815A816B817C819E8163
:101400000E948E058D81882309F121E049815A814E
:101410006B817C819E810E948E058C01FC01E851CC
:10142000FC47E730F10568F5E85EF54F0C9498113C
:101430002E0A320A1F0A2A0A360A3A0A3E0A26E207
:1014400041EE61EECE0101960E946C092C96E5E01A
:101450000C94C71127E245EE65EEF4CF26E241EE8B
:1014600060EEF0CF27E245EE64EEECCF26E241EEEF
:1014700062EEE8CF27E245EE66EEE4CF28E241E0F7
:10148000EBCF8E81882309F4A0C21092B20198019B
:1014900030572332310508F080C284E090E00E948A
:1014A0004E119093730180937201F801E150F0475F
:1014B000E232F10508F026C0E05AF54F0C9498117D
:1014C000BC0A310BC40A8E0A920AC80A960ACC0AD0
:1014D000D80AA20A2A0BA60ADC0AAA0AE00A080B02
:1014E000AE0AE40A0F0BB40AEA0AF20A9A0AD00A10
:1014F0009E0AD40AB80AEE0AFE0A180B280B880ABC
:10150000C00A380B8091720181608093720195C08E
:10151000809173018860809373018FC08091720104
:101520008260F3CF809172018460EFCF809172016D
:101530008860EBCF809173018160EDCF8091730162
:101540008260E9CF809172018061DFCF809172016A
:101550008062DBCF809172018064D7CF0E942B061E
:10156000809172018068D1CF809172018860DCCF58
:10157000809173018260E0CF809172018E7FC5CF30
:1015800080917301877FC7CF809172018D7FBDCF1E
:10159000809172018B7FB9CF80917201877FB5CF27
:1015A000809173018E7FB7CF809173018D7FB3CF10
:1015B000809172018F7EA9CF809172018F7DA5CF1E
:1015C000809172018F7BA1CF0E942B0680917201C6
:1015D0008F779BCF80917201877FDCCF80917301E1
:1015E0008D7FE0CF8091720182FB992790F921E0F5
:1015F000922790FB82F990FB83F987CF809173014A
:10160000982F909591708E7F892B90FB81F983CFD5
:1016100090917201892F8F7B96FF806476CF0E9414
:101620002B0690917201892F97FB87F980586DCF17
:1016300061E08EE090E00E9464116091720170910F
:10164000730184E090E00E9482110E942B06FECE7E
:1016500060E0EFCF90917201892F8F7E94FF8061BF
:1016600054CF90917201892F8E7F90FF81604DCF72
:1016700090917301892F877F93FF88604CCF89E217
:10168000E0E2F1E09281891301C01282319621E0FB
:10169000E632F207B9F796C101304CE7140749F179
:1016A00003305CE71507F9F001151C4721F50E948E
:1016B0002B062FEF44E35CE0215040405040E1F71F
:1016C00000C0000087E797E7909301088093000827
:1016D00088E19AE00FB6F894A895809360000FBE59
:1016E00090936000FFCF6FEF7FEF90E080E00E946B
:1016F00082110E94DE0809811A818823F1F0C80155
:101700000E94C504F82E682FC8010E942C05B8015C
:101710008F2D0E94C6030E94DF03182FF82E2E8102
:10172000092F02950F70083009F467C058F4023091
:1017300008F108500230C8F595C0C8010E94F904AC
:10174000F82EE5CF093009F4E7C00C3090F782EFAE
:10175000181709F4F2C043EF141709F4F6C051EF5B
:10176000151305C1892F8F71222309F4EBC00E9444
:101770007905DFCF092F0F70907F11F00295007F60
:10178000812F222311F1002369F090E2910F98300C
:1017900010F0111114C080915201082B00935201D6
:1017A0000E940406812F0E94330920E049815A815A
:1017B0006B817C818D819E810E948E0547CE8091B8
:1017C0005101082B00935101EBCF0E94090900231E
:1017D00061F30095105E183010F0F11008C0809190
:1017E00052010823009352010E940406DECF80912B
:1017F0005101082300935101F7CF892F837009F01D
:1018000044C021112FC0812F829586958770880F43
:10181000880F212F2F7030E0082E02C0220F331FB7
:101820000A94E2F750E040E014FF09C04FE050E0B6
:1018300002C0440F551F8A95E2F740955095969542
:10184000969593709230B9F090F460916E0170911A
:101850006F01913051F0C901842B952B862397237A
:101860000E9489050E94AD02A0CF262B372BC9010B
:10187000842B952BF5CFC901842B952B20916E01DC
:1018800030916F0182279327EBCF8695222311F0A9
:10189000892F8170882331F3812F829586958770F7
:1018A000880F880F212F2F7030E0082E02C0220FE2
:1018B000331F0A94E2F750E040E014FF09C04FE004
:1018C00050E002C0440F551F8A95E2F740955095AD
:1018D0009695969593709230A9F080F4609170017E
:1018E00070917101913041F0C901842B952B8623B1
:1018F00097230E946205B6CF262B372BC901842B74
:10190000952BF7CFC901842B952B20917001309135
:10191000710182279327EDCF092F0F70222339F011
:10192000802F0E947905812F0E94FF089BCF0E9483
:10193000F408802F0E94670595CF892F8F7122238D
:1019400009F415CF0E946705F4CE222369F09F7138
:1019500021E030E0A90102C0440F551F9A95E2F73B
:10196000CA010E946205E5CE90E080E0FACF222312
:1019700021F0812F0E943309DCCE59E3151309C0F1
:101980008FEF97EE23E0815090402040E1F700C0B8
:101990000000812F0E940909CCCE06314CE71407C4
:1019A00009F07ACE809152018A7A91E009F490E0B0
:1019B0009093280165E3811101C069E280E291E022
:1019C0000E9493020E94040641CD06315CE7150790
:1019D00009F091CE80912801882309F450CE85E347
:1019E0004FCEA6E0B0E0E7EFFCE00C94AC110E9413
:1019F00087028C0180915B0190915C0180179107B7
:101A000081F019821A820E948702682F49815A81C7
:101A1000792F80E090E00E94DF0910935C01009331
:101A20005B012696E4E00C94C8114F925F927F927E
:101A30008F929F92AF92BF92CF92DF92EF92FF92DE
:101A40000F931F93CF93DF93CDB7DEB72E970FB6CB
:101A5000F894DEBF0FBECDBF8E010F5F1F4F8EE02B
:101A6000F80111928A95E9F72BE0E22E21E0F22E9F
:101A700036E1832E31E0932ECC24C394D12CAA24BA
:101A8000A394B12CF70181917F018F3F09F44FC0DE
:101A9000F894E82FE295EF70F0E021A18F70A50196
:101AA00002C0440F551F8A95E2F7CA01922F982B66
:101AB00091A392A18095892382A3789400C096E196
:101AC000492E91E0592ED801B60160957095F2012A
:101AD00071902F018D919D91AD0142505109FFEF01
:101AE0007F1609F45CC0272D22952F7030E0F90194
:101AF00020A130E0F72DFF7002C035952795FA95AB
:101B0000E2F720FD4CC08C299D29FA019183808346
:101B1000FDE14F16F1E05F06D1F6F70131978081C4
:101B20008F3F11F00E94BC0220EA2A95F1F7CC0CFD
:101B3000DD1C8E149F0409F0A5CF4EE050E0B801E3
:101B400080E691E00E94D511892B71F18EE0F801B9
:101B5000A0E6B1E001900D928A95E1F781E08093D3
:101B60005F010E94870290935E0180935D0110E007
:101B7000812F2E960FB6F894DEBF0FBECDBFDF913A
:101B8000CF911F910F91FF90EF90DF90CF90BF907A
:101B9000AF909F908F907F905F904F900895862395
:101BA0009723B3CF10E02AC010915F011123F9F2FF
:101BB00020915D0130915E014FB7F8948091AC01A6
:101BC0009091AD01A091AE01B091AF014FBF821BCA
:101BD000930B059760F24EE050E060E671E084E719
:101BE00091E00E94D511892BE9F28EE0E0E6F1E068
:101BF000A4E7B1E001900D928A95E1F710925F01A0
:101C0000B7CF1F920F920FB60F9211242F933F93CD
:101C10004F935F936F937F938F939F93AF93BF93F4
:101C2000CF93EF93FF93C091E900CF708091EC00C8
:101C30001092E9008091F000877F8093F000789403
:101C40000E9439061092E9008091F000886080932C
:101C5000F000C093E900FF91EF91CF91BF91AF9158
:101C60009F918F917F916F915F914F913F912F91B4
:101C70000F900FBE0F901F9018951F920F920FB6E6
:101C80000F9211242F933F934F935F936F937F9302
:101C90008F939F93AF93BF93EF93FF938091E10056
:101CA00082FF09C08091E20082FF05C08091E100BF
:101CB0008B7F8093E1008091DA0080FF24C08091C7
:101CC000D80080FF20C08091DA008E7F8093DA00F8
:101CD0008091D90080FF9AC080E189BD82E189BDF1
:101CE00009B400FEFDCF81E08093AB0180919501A6
:101CF000811109C00E945B010E947A018091E2007B
:101D000084608093E2008091E10080FF17C08091A1
:101D1000E20080FF13C08091E2008E7F8093E2009A
:101D20008091E20080618093E2008091D80080621F
:101D30008093D80019BC85E08093AB018091E100CD
:101D400084FF29C08091E20084FF25C080E189BD25
:101D500082E189BD09B400FEFDCF8091D8008F7D5E
:101D60008093D8008091E1008F7E8093E100809184
:101D7000E2008F7E8093E2008091E2008160809398
:101D8000E2008091A201882309F446C084E0809398
:101D9000AB018091AB018091E10083FF26C080916F
:101DA000E20083FF22C08091E100877F8093E10001
:101DB00082E08093AB011092A2018091E1008E7FBE
:101DC0008093E1008091E2008E7F8093E200809119
:101DD000E20080618093E20060E080E00E942901DF
:101DE0008091F00088608093F000FF91EF91BF91A7
:101DF000AF919F918F917F916F915F914F913F91A3
:101E00002F910F900FBE0F901F90189519BC109234
:101E1000AB011092950177CF8091E30087FD02C05E
:101E200081E0B5CF83E0B3CF78941F920F920FB6C5
:101E30000F9211248F939F93AF93BF938091AC0126
:101E40009091AD01A091AE01B091AF010196A11D9D
:101E5000B11D8093AC019093AD01A093AE01B093FE
:101E6000AF01BF91AF919F918F910F900FBE0F90D7
:101E70001F9018951F920F920FB60F9211248F93F7
:101E80009F93AF93BF9380919401811113C0809170
:101E9000AC019091AD01A091AE01B091AF0141961E
:101EA000A11DB11D8093AC019093AD01A093AE0133
:101EB000B093AF01BF91AF919F918F910F900FBEE3
:101EC0000F901F901895A8E0B0E0E9E6FFE00C94B1
:101ED0009E1185B7806885BF85B7806885BF84B748
:101EE000877F84BF0FB6F894A895809160008861C1
:101EF00080936000109260000FBE80E890E00FB603
:101F0000F89480936100909361000FBE8AEB92E099
:101F100090931F0180931E010E945B010E947A0131
:101F20008091E20084608093E20078948091AB011C
:101F3000882399F01091E9001F708091EC0080FFD8
:101F400032C180E8182B1092E9008091E80083FDEF
:101F50000E9439061F701093E90082E084BD93E06F
:101F600095BD9AEF97BD80936E000BE011E076E18E
:101F7000E72E71E0F72ED8018D918D018F3F11F082
:101F80000E94BC02E016F106B1F706E111E06DE136
:101F9000E62E61E0F62EF80181918F018F3F11F05E
:101FA0000E94BC02E016F106B1F78EE0E4E7F1E032
:101FB000DF01282F1D922A95E9F7E0E6F1E0DF0125
:101FC0001D928A95E9F790E080E00E944E11853ECF
:101FD0009E4F09F461C065EE7EEF90E080E00E94C4
:101FE000821160E082E090E00E94641181E090E064
:101FF00090936F0180936E0161E083E090E00E9416
:10200000641160E074E184E090E00E94821160E07D
:1020100086E090E00E94641160E087E090E00E941A
:10202000641140E050E0BA0188E090E00E9476112F
:1020300060E083E290E00E94641160E08CE090E058
:102040000E94641160E08DE090E00E9464111982AA
:102050001A821B821C821D821E821F82188648E003
:1020600050E067E170E0CE0101960E94541140E01B
:1020700050E0BA018FE190E00E94761140E050E01C
:10208000BA018FE090E00E94761140E050E0BA0182
:1020900083E190E00E94761182E090E00E94461178
:1020A0008093820184E090E00E944E11909373012E
:1020B0008093720183E090E00E94461190E00E94BC
:1020C000890580E091E0909393018093920148E12B
:1020D000642E712C50E4352E222423948091AB0180
:1020E00012E1853009F496C00E94150D23E8A22E56
:1020F00021E0B22E34E7832E31E0932ED401F50196
:10210000219131918D919D9141E0E139F40709F4DC
:102110008BC028173907A1F3512CD4010D911D91C3
:102120004D01F501C190D1905F01C016D10659F162
:10213000412CEE24E394F12CC026D126C6018E2139
:102140009F21892BB1F049825A820E9487029C8389
:102150008B832D8291E0970120233123232B09F4D7
:1021600090E09E8349815A816B817C818D810E94A0
:10217000DF094394EE0CFF1CFBE04F12DFCFF501AB
:10218000329711830083539427E05212C6CF8FB742
:10219000F8944091AC015091AD016091AE01709105
:1021A000AF018FBF47C080E0CDCE8091AB018430BE
:1021B00009F1109294010FB6F894A895609260000E
:1021C0000FBE3092600083B7817F846083BF83B786
:1021D000816083BF7894889583B78E7F83BF0FB665
:1021E000F894A895809160008861809360001092B7
:1021F00060000FBE8091A101882361F00E94150D3F
:10220000E4E7F1E081919191892B49F521E0E238F1
:10221000F207C1F78091AB01853009F4C6CF0E9467
:102220002B060E94AD0260CF2817390709F074CF42
:102230000E94F10C0E94AD0290919101891709F45E
:102240004DCF809391018FB7F8944091AC0150919C
:10225000AD016091AE017091AF018FBF3FCF40E102
:1022600049BD19BD09B400FEFDCF8091D8008F7D16
:102270008093D8008091E00082608093E00080919C
:10228000E00081FDFCCF0E942B06C4CFF999FECF60
:1022900092BD81BDF89A992780B50895A8E1B0E074
:1022A00042E050E00C948A11DC01A40FB51F4150AC
:1022B000504048F0CB01840F951F2E910E9465116C
:1022C00041505040D0F70895262FF999FECF92BD86
:1022D00081BDF89A019700B4021639F01FBA20BDEB
:1022E0000FB6F894FA9AF99A0FBE08950396272F1D
:1022F0000E9465110E946411252F0E946511242FF0
:102300000C9465110196272F0E9465110C9464119D
:10231000DC01CB01FC01F999FECF06C0F2BDE1BDA5
:10232000F89A319600B40D9241505040B8F7089594
:10233000EE0FFF1F0590F491E02D09942F923F922C
:102340004F925F926F927F928F929F92AF92BF92C5
:10235000CF92DF92EF92FF920F931F93CF93DF9371
:10236000CDB7DEB7CA1BDB0B0FB6F894DEBF0FBECE
:10237000CDBF09942A88398848885F846E847D841B
:102380008C849B84AA84B984C884DF80EE80FD801D
:102390000C811B81AA81B981CE0FD11D0FB6F89493
:1023A000DEBF0FBECDBFED010895FB01DC0104C00F
:1023B0008D910190801921F441505040C8F7881B3D
:0823C000990B0895F894FFCF7A
:1023C8008402F40581028302820201C267663635FF
:0E23D800349796943793F0F1F4F5F6F7C600BB
:00000001FF
