:100000000C9471040C948E040C948E040C948E0445
:100010000C948E040C948E040C948E040C948E0418
:100020000C948E040C948E040C943A0E0C94FE0DD9
:100030000C9439140C948E040C948E040C948E043D
:100040000C948E040C948E040C948E040C948E04E8
:100050000C948E040C94110F0C948E040C948E044A
:100060000C948E040C948E040C948E040C948E04C8
:100070000C948E040C948E040C948E040C948E04B8
:100080000C948E040C948E040C948E040C948E04A8
:100090000C948E040C948E040C948E040C948E0498
:1000A0000C948E040C948E040C948E04290035005C
:1000B0002B003900E100E00011000D0018002400C1
:1000C00040003A001E00140004006400E20010002A
:1000D0000E000C00250041003B001F001A00160016
:1000E0001D00E30036000F001200260042003C0015
:1000F0002000080007001B002C003700330013000D
:10010000270043003D0021001500090006005000B3
:10011000380034002F002D0044003E00220017005C
:100120000A00190051005200320030002E00450034
:100130003F0023001C000B0005004F00E6002800D4
:100140002A004C00460001000100010001000100EE
:1001500001000100010001000100D20001000100C6
:100160000100010001000100010001000100010087
:100170000100010001000100010001000100010077
:100180000100010001000100010001000100010067
:100190000100010001000100010001000100010057
:1001A0000100010001000100010001000100010047
:1001B0000100010001000100010001000100010037
:1001C00001000100010001000100D1000100010057
:1001D0000100010001000100010001000100010017
:1001E00000DA0281FFD9F1DB20A4A62EAF00A0C067
:1001F000D30000A1C8D30000AED580A81F408D1445
:100200002000808182838485868788898A8B8C8D73
:100210008E8F9091929394A0A1A2A3A4A5A6A7A823
:10022000A9AAABACADAEAFB0B1B2B3B4C0C1C2C39A
:10023000C4C5C6C7C8C9CACBCCCDCECFD0D1D2D306
:10024000D4002E002E005374617274696E6720759D
:10025000702E00496E76616C6964207061737377EB
:100260006F72642E2054727920616761696E00504C
:10027000617373776F726420736574207375636341
:100280006573732100536574206E65772070617308
:1002900073776F72643A004E6F2070617373776F7B
:1002A000726420666F756E642E00456E74657220F0
:1002B00070617373776F72643A004F70656E206877
:1002C00061726477617265206C6170746F70000098
:1002D000AF00AE05010906A101050719E029E715E0
:1002E00000250195087501810295017508810105B8
:1002F00007190029FF150026FF00950675088100E3
:1003000005081901290515002501950575019102BA
:10031000950175039101C009022200010100A0FAB4
:10032000090400000103010100092111010001225B
:1003300044000705810308000112010002000000CB
:1003400008EDFEFEBA0300010200013A034200611B
:10035000006C007400680061007A00610072002087
:10036000006B006500790062006F0061007200643C
:10037000002000760065007200730069006F006E57
:10038000002000330000001403420041004C0054E0
:1003900000480041005A00410052000000040309D7
:1003A0000407087F0807003E5B4F5B3E003E6B4F33
:1003B0006B3E001C3E7C3E1C00183C7E3C18001C22
:1003C000577D571C001C5E7F5E1C0000183C180007
:1003D00000FFE7C3E7FF00001824180000FFE7DB79
:1003E000E7FF0030483A060E00262979292600400A
:1003F0007F05050700407F05253F005A3CE73C5A32
:10040000007F3E1C1C0800081C1C3E7F0014227F3D
:100410002214005F5F005F5F0006097F017F00001C
:100420006689956A0060606060600094A2FFA29493
:100430000008047E04080010207E20100008082A0E
:100440001C0800081C2A0808001E10101010000CC0
:100450001E0C1E0C0030383E383000060E3E0E06D4
:100460000000000000000000005F00000000070026
:10047000070000147F147F1400242A7F2A1200230F
:100480001308646200364956205000000807030034
:1004900000001C224100000041221C00002A1C7F99
:1004A0001C2A0008083E0808000080703000000880
:1004B000080808080000006060000020100804021E
:1004C000003E5149453E0000427F400000724949CC
:1004D0004946002141494D33001814127F1000276E
:1004E00045454539003C4A49493100412111090738
:1004F00000364949493600464949291E0000001482
:1005000000000000403400000000081422410014E4
:1005100014141414000041221408000201590906A1
:10052000003E415D594E007C1211127C007F49490A
:100530004936003E41414122007F4141413E007F1A
:1005400049494941007F09090901003E4141517370
:10055000007F0808087F0000417F410000204041E3
:100560003F01007F08142241007F40404040007F4F
:10057000021C027F007F0408107F003E4141413E83
:10058000007F09090906003E4151215E007F0919DB
:1005900029460026494949320003017F0103003FF3
:1005A0004040403F001F2040201F003F4038403F58
:1005B00000631408146300030478040300615949BC
:1005C0004D4300007F41414100020408102000001B
:1005D0004141417F0004020102040040404040408C
:1005E000000003070800002054547840007F28448E
:1005F000443800384444442800384444287F0038B4
:10060000545454180000087E09020018A4A49C78D1
:10061000007F080404780000447D40000020404032
:100620003D00007F102844000000417F4000007C16
:1006300004780478007C0804047800384444443882
:1006400000FC182424180018242418FC007C08043A
:1006500004080048545454240004043F4424003C3B
:100660004040207C001C2040201C003C4030403C8E
:10067000004428102844004C9090907C004464541E
:100680004C440000083641000000007700000000E4
:1006900041360800000201020402003C2623263CE9
:1006A0000000000000000000307848D8F0E08486A8
:1006B000FFFF8684C0F0D8487830000000000000BA
:1006C0000000E0F0F030303070E0C000000000C00A
:1006D000F0F0F0C000000000E0F0E000000030307A
:1006E00030F0F0F030303000F0F00000000000009A
:1006F000F0F00000000000E0F0F0E08000000030CA
:1007000030303030F0F07000000000E0F0F0E00039
:1007100000000000F0F030303030E0E080000000F9
:10072000C0F0F8FC3E1E06010000007F4141417F01
:10073000007F4141417F000080C0E07E5B4F5BFE57
:10074000C00000C000DCD7DEDEDED7DC00C0000069
:100750000000000000000000000000000000000099
:100760000000000000081C3E08080888FFFFC9C9F7
:10077000FFFFC9C9FFFF880808083E1C08000000E9
:100780000000FFFFFF0C0C0C1EFFF10000E0FE7FDD
:100790006360677FFCE00000FFFFFF0000000000D7
:1007A00000FFFFFF00000000FFFF0C0C0C0C0C0C06
:1007B000FFFF0000C0F8FF6F61616FFFF8C00080AD
:1007C000E0F03C0F07010000C0F8FF6F60616FFFB1
:1007D000F8C00000FFFF0C083CFCEF87030000009E
:1007E000030F1F3F3C7870600000007F4141417F54
:1007F000007F4141417F00307B7F7830202030787E
:100800007F3B0003000F7F0F0F0F7F0F00030000DF
:1008100000000000000000000000000000000000D8
:100820000000000000000000060F090D0701103055
:100830007F7F301001070D090F0600000000000047
:100840000000030707060602030301000307010077
:100850000000000003070200030707060606060063
:100860000003070300000000030300000000000075
:100870000303000007030000000000000307020359
:100880000707060606060202070300000000000034
:10089000030700000303000000000307020000003C
:1008A0000000000000000000000000000000000048
:1008B0000000000000000000000000000000000038
:1008C0000000000000000000000000000000000028
:1008D0000000000000000000000000000000000018
:1008E000000011241FBECFEFDAE0DEBFCDBF11E064
:1008F000A0E0B1E0E2EAF4E302C005900D92A83670
:10090000B107D9F724E0A8E6B1E001C01D92A53BEC
:10091000B207E1F70E9462140C944F1A0C94000085
:10092000982F9093E900562F40E022E0891731F08C
:100930005091EC002091ED004091F00021FD07C0A6
:100940009F5F973071F78093E90081E008953091BF
:10095000EB003E7F3093EB003091ED003D7F309314
:10096000ED003091EB0031603093EB005093EC00E0
:100970002093ED004093F0002091EE0027FDE0CFA2
:1009800080E00895E8EDF0E080818E7F8083109212
:10099000E2001092DA001092E100A0EEB0E08C913B
:1009A00081608C9380818F77808319BCA7EDB0E044
:1009B0008C918E7F8C9380818F7E808310929002A9
:1009C0000895B0E0A0E0E7EEF4E00C94A819C8EDBB
:1009D000D0E088818F7E8883E7EDF0E080818160C0
:1009E000808384E082BF81E08093900288818E7F43
:1009F000888302EE10E0F80110821092DA0081EE96
:100A0000C82ED12CF601108288818F778883888147
:100A10008068888388818F7D888319BC1092A602A4
:100A200010929D0210929C0210929B0290EEE92E71
:100A3000F12CF70180818B7F80838881816088839E
:100A400060E080E00E949004F60180818E7F8083C8
:100A5000F801808181608083808188608083F701D4
:100A600080818E7F8083888180618883CDB7DEB767
:100A7000E8E00C94C4192091E4003091E50085E68B
:100A80009091EC0090FF06C09091E80090FF06C0A6
:100A900080E008959091E80092FDFACF9091A6022F
:100AA000992391F0953091F09091EB0095FD10C055
:100AB0004091E4005091E5002417350709F3815077
:100AC0009A01F1F684E0089582E0089583E00895A4
:100AD00081E0089580919E0287FF13C08091E80015
:100AE00082FF06C08091E8008B778093E80004C005
:100AF0008091A6028111F2CF08958091A6028823E9
:100B0000D9F38091E80080FFF8CF8091E8008E77DC
:100B1000ECCFFC018091A4029091A5028617970763
:100B2000A0F06115710529F49091E8009E779093EB
:100B3000E80090E06115710551F4911108C08091B1
:100B4000E80082FF35C080E00895BC01F2CF8091BB
:100B5000A6028823C9F18530C9F18091E80083FDA0
:100B600031C08091E80082FDEACF8091E80080FFEB
:100B7000E1CF2091F3008091F200322F282F6115F0
:100B8000710519F02830310558F091E02830310511
:100B900009F090E02091E8002E772093E800CACF7A
:100BA00081918093F100615071092F5F3F4FE7CF32
:100BB0008091A602882341F0853041F08091E800C1
:100BC00083FFBDCF81E0089582E0089583E008951A
:100BD0000895089508958091920208952FB7F8948A
:100BE00060918C0270918D0280918E0290918F02A3
:100BF0002FBF08959C01FC0132969FEF80E0419148
:100C0000461751F09F3F19F4411101C0982F8F5F93
:100C10008630A9F79F3F09F40895290F311D97FDEC
:100C20003A95F90162830895E0918902F0918A0270
:100C3000309729F00190F081E02D0995089580E02A
:100C4000089580E00895F894E82FE295EF70F0E0C1
:100C500031A1282F2F7081E090E001C0880F2A95E4
:100C6000EAF7982F9095932391A392A1892B82A3C1
:100C7000789408959091BE0192FF10C041E0282F12
:100C80002471243009F040E031E0282F2871283009
:100C900009F030E0431711F02CE0822793FF10C0D9
:100CA00041E0282F2471243109F040E031E0282F61
:100CB0002871283109F030E0431711F02CE0822729
:100CC0003091BF0130FF10C051E0282F2171213039
:100CD00009F050E041E0282F2871283009F040E069
:100CE000541711F029E0822731FF10C041E0282F6E
:100CF0002171213109F040E031E0282F287128319D
:100D000009F030E0431711F029E0822794FD877E37
:100D1000089582389105B9F1B0F48133910509F451
:100D20007DC048F48932910509F46DC08A3291057D
:100D300009F479C008958533910509F45FC08933BA
:100D4000910509F10895833E9105D9F138F4803E6B
:100D5000910529F1823E910579F10895863E91052C
:100D6000D9F1873E910509F43EC0843E910541F5D5
:100D70002091BF0121FF24C08091BE0184FD19C0D4
:100D800087EE90E008952091BE01237009F056C0CF
:100D90002091BF0123FF14C089E290E008952091C3
:100DA000BE0120FD38C03091BF0130FF09C024FFD3
:100DB0003FC090E080E008952091BE0122FDF7CF72
:100DC00008952091BE0122FD36C03091BF0130FD53
:100DD00035C024FDEECFF4CF2091BE0123FFF0CF2C
:100DE00024FDE7CFCDCF2091BE0123FD2AC0309155
:100DF000BF0131FFEECF84EE90E008952091BE0157
:100E000025FDCACF08952091BE0125FD1DC020916A
:100E1000BF0123FFD5CF89E390E008952091BE0163
:100E200026FD15C008952091BE0126FD13C008952A
:100E300083EE90E0089582EE90E0089580EE90E0D9
:100E4000089586EE90E0089585E390E008958AE2A3
:100E500090E0089581E390E0B3CF7730B8F46B3041
:100E6000A8F48230B0F4E62FF0E09BE0799FE00D2B
:100E7000F11D11249DE4899FE00DF11D1124EE0F59
:100E8000FF1FE455FF4F85919491089580E090E015
:100E9000089581E0FCCF0F931F93CF93DF930E94BF
:100EA0008906EC01811522E59207D8F5C11580E588
:100EB000D80708F0B9C0C83ED105C8F4C03ED10576
:100EC00080F4C53AD10548F4C430D10550F4C1309E
:100ED000D10539F0D0E0C0E004C0CD3CD105D0F35D
:100EE000D065CE01DF91CF911F910F910895C1156B
:100EF00021E0D20778F38E011127C11580E2D807CF
:100F000008F0AAC08D2F0E943A06C82FC8010E947F
:100F10008906D0E0DC2FCC27CC27DF71C82BD92B5A
:100F2000E0CF80369245F0F4C03482E5D80708F06F
:100F30005BC0C03222E5D20708F04FC02C2F2695A7
:100F4000269580E2289F900111248C2F8370C1E0A8
:100F5000D0E002C0CC0FDD1F8A95E2F7C22BD32B65
:100F6000DD68BFCFC03C82E5D807E0F4C03A22E597
:100F7000D20708F04EC0C03882E5D80708F0AACFE3
:100F80002C2F237081E090E002C0880F991F2A95D2
:100F9000E2F79A68C695C695C77020E2C29FE00145
:100FA0001124BCCFC03E22E5D20708F093CF9E01AA
:100FB00043E0220F331F4A95E1F7207E3327CE010D
:100FC00083709927C1E0D0E002C0CC0FDD1F8A9565
:100FD000E2F7C22BD32BDA6884CFCF71D0E0DC2FBD
:100FE000CC27C16FD06A7DCF2C2F269526952770F0
:100FF00080E2289F900111248C2F8370C1E0D0E003
:1010000002C0CC0FDD1F8A95E2F7DC68C22BD32B20
:1010100068CF8C2F8F710E943A06C82FD0E0DC2F4A
:10102000CC27CC27DF715DCF8C2F8F710E943A06C1
:1010300095E0D695C7959A95E1F7CF70D0E0DC2F73
:10104000CC27282F30E084FF05C084E0220F331F17
:101050008A95E1F7D069DACFC8010E948906EC01D0
:1010600040CFB0E0A0E0E7E3F8E00C94A7197C01E2
:101070000091BC011091BD018091BA019091BB011A
:10108000082B192BCFE0D0E0CC24C394D12CBC2E5C
:10109000C6010C2E02C0880F991F0A94E2F7802324
:1010A0009123892B49F4219790F7B12C8B2DCDB743
:1010B000DEB7E9E00C94C319B7018C2F0E942D070D
:1010C0000E944B07019779F3F1CF973078F58B3079
:1010D00068F5E82FF0E08BE0989FE00DF11D1124FA
:1010E0009E2F977083E0F695E7958A95E1F7EE0FCE
:1010F000FF1FEE0FFF1FEB58FE4F50E040E080E077
:10110000219130E0092E02C0369527950A94E2F726
:1011100021703327042E01C0220F0A94EAF7822B94
:101120004F5F5F4F4430510559F7089580E00895AF
:10113000973098F58B3088F5E82FF0E08BE0989F9A
:10114000E00DF11D11248E2F877041E001C0440F86
:101150008A95EAF783E0F695E7958A95E1F7EE0F31
:10116000FF1FEE0FFF1FEB58FE4F30E020E070E056
:101170005191DF011197CB01022E02C09695879500
:101180000A94E2F7817081958527842385278C93C3
:101190002F5F3F4F2430310559F708959093BD01DB
:1011A0008093BC01089521E030E002C0220F331F7C
:1011B0008A95E2F7209530958091BC019091BD0110
:1011C000822393230E94CE08089521E030E002C0DC
:1011D000220F331F8A95E2F78091BC019091BD01E7
:1011E000822B932B0E94CE0808959093BB0180938D
:1011F000BA010895A6E0B0E0E0E0F9E00C94AD1982
:1012000049835A8349815A819923A1F0222391F07D
:10121000CA010E943108182F682F89819A810E9483
:10122000980869817A81812F0E942D072696E3E034
:101230000C94C919CA010E946508182FF2CFEDEA73
:10124000F2E080E092E0DF019C011D9221503040ED
:10125000E1F7F093B404E093B3048FEF9FEF909322
:10126000AC028093AB020895CF93DF93682F81E0A7
:101270006A3019F06D3031F480E00E94C309DF91CB
:10128000CF9108958091B3049091B40426E0FC01BD
:10129000ADEAB4E001900D922A95E1F7603E08F4C2
:1012A00059C026E0FC0111922A95E9F7C091B304D8
:1012B000D091B40446E050E0BE018DEA94E00E9473
:1012C000421A892B59F1CE018D5A92409C0145E07A
:1012D000369527954A95E1F741E050E0BA0102C002
:1012E000660F771F2A95E2F79B016091AB02709120
:1012F000AC02262B372B059665E0969587956A9567
:10130000E1F7FA0102C0EE0FFF1F8A95E2F7CF0165
:10131000822B932B9093AC028093AB029E01275AB1
:1013200032404091AA02642F70E0C9010E948A19DC
:10133000481B463010F4240F311D2115F2E03F0701
:1013400010F030E020E023553D4F3093B40420935B
:10135000B30495CFF6E06F9FB00111246F557C4F19
:1013600046E050E00E94D519A1CFCF93DF93EC0166
:10137000FE018491811103C0DF91CF9108950E94F5
:1013800034092196F5CFCF93382FE091B304F09133
:10139000B404ED5AF2402091AA02622F70E0CF010E
:1013A0000E948A19281B822F332361F066E00E9475
:1013B000301AC82FC15010F4CF91089580E20E94D6
:1013C0003409F8CF9F01280F311D2115324018F044
:1013D00080E0F0E0E0E08E0F9F2F911D83559D4F40
:1013E0009093B4048093B304E7CF80919E019091D1
:1013F0009D01892B80936A0148E050E06FE971E01C
:101400008AE691E00E94421A892BA9F088E0EAE678
:10141000F1E0AFE9B1E001900D928A95E1F7E0913A
:101420008902F0918A02309731F00280F381E02D39
:101430008AE691E00995089510929E01ECE6F1E0AC
:1014400086E0DF011D928A95E9F710929D010E94C6
:10145000F5090895AAE2B0E0E0E3FAE00C94AD19D2
:10146000EEE9F2E08091F100819322E0E63AF207A2
:10147000C9F780919F02833009F47DC008F581305F
:1014800009F454C0823009F4BEC08091E80083FFA3
:10149000F8C080919E0290919F029A3008F0F1C0AE
:1014A000E92FF0E0EA5AF54F0C943C1A140B3A0B72
:1014B000410B3A0B410B920BB40B410BA00CAD0C42
:1014C0008A3009F48FC08B3009F472C08930E9F694
:1014D00080919E028132C9F68091A2029091A3026E
:1014E000892B99F68091E800877F8093E8008091AE
:1014F000E80082FF3BC08091F3009091F2008927C1
:1015000098278927029731F48091F100813011F0FA
:10151000863021F48091F100809392028091E8005E
:101520008B778093E8000E946A05AFCF80919E027E
:10153000813A09F0AACF8091E800877F8093E80084
:101540008091A2029091A302892B61F060E090E06B
:1015500080E070E00E9489058091E8008B7780939D
:10156000E80093CF68E083E992E0F3CF8091A60290
:101570008111BDCF8ACF80919E02813A09F085CF3B
:101580008091A2029091A302892B09F07ECF8091D5
:10159000E800877F8093E8008091E80080FFFCCF1F
:1015A000809111018093F1008091E8008E77B9CF8E
:1015B00080919E02813209F068CF8091A2029091C1
:1015C000A302892B09F061CF8091E800877F809387
:1015D000E8000E946A058091A002809311010E9498
:1015E0001C0A53CF80919E02813209F04ECF809128
:1015F000E800877F8093E8000E946A058091A1023D
:101600008093910242CF80919E02813A09F03DCFB2
:101610008091E800877F8093E8008091E80080FF58
:10162000FCCF80919102BECF803889F0823849F595
:101630008091A2028F70873020F58093E90080911D
:10164000EB0085FB882780F91092E90006C08091A5
:101650009B0290919C02911182609091E800977F8B
:101660009093E8008093F1001092F1008091E800DF
:101670008E7727C0282F2D7F21F48823A1F0823078
:1016800029F18091E80083FF0AC08091E800877FFC
:101690008093E8008091EB0080628093EB00AA9633
:1016A000E3E00C94C9198091A002813051F7933086
:1016B00009F080E080939C021092E9008091E8009C
:1016C000877F8093E8000E946A05DBCF8091A002AB
:1016D0008111F2CF8091A2028F702FEF280F263058
:1016E00080F68093E9002091EB0020FFE5CF933056
:1016F00031F48091EB0080628093EB00DDCF90911C
:10170000EB0090619093EB0021E030E001C0220FEC
:101710008A95EAF72093EA001092EA008091EB00A4
:101720008860EACF8111ADCF1091A0021F77809120
:10173000E3008078812B8093E3008091E800877F2D
:101740008093E8000E946A058091E80080FFFCCF4A
:101750008091E30080688093E30083E0111101C071
:1017600082E08093A6028DCF8058823008F089CF26
:101770008091A0029091A1028C3D23E09207A1F5F7
:1017800083E08A838AE289834FB7F894DE01139657
:1017900020E03EE051E2E32FF0E050935700E49167
:1017A00020FF03C0E295EF703F5FEF708E2F90E057
:1017B000EA30C0F0C7968D939D932F5F243159F77F
:1017C0004FBF8091E800877F8093E8006AE270E075
:1017D000CE0101960E9489058091E8008B77809365
:1017E000E8004FCFC096E7CF4091A2025091A302EC
:1017F000292F33272330310509F43FC078F52130F4
:10180000310509F465C082E290E0E7E1F3E02230BF
:10181000310509F036CF2091E800277F2093E800BA
:101820002091A4023091A5028217930708F49C012D
:1018300040E02115310509F050C041114EC08091A2
:10184000E80082FDC9CF8091A602882329F2853065
:1018500019F28091E80083FFF2CFBECF213231052B
:1018600079F12232310509F00CCF452B09F009CF6F
:1018700084E490E0E3EDF2E0CECF9927813091054A
:10188000B9F058F0029709F0FCCEEBE4F3E0E491F4
:101890008E2F90E0EBE4F3E007C0EDE9F3E0E49194
:1018A0008E2F90E0EDE9F3E0009709F4EACEB3CF94
:1018B000E7E8F3E0E4918E2F90E0E7E8F3E0F4CF7F
:1018C000452B09F0DECE89E090E0E9E2F3E0A3CF1A
:1018D00082E190E0E9E3F3E09ECF8091A6028823C5
:1018E00009F47ACF853009F477CF8091E80083FD41
:1018F00073CF8091E80082FDA2CF8091E80080FF45
:1019000098CF8091F3009091F2008927982789273A
:101910002115310519F08830910550F041E0089704
:1019200009F040E08091E8008E778093E80081CF55
:1019300044914093F1003196215031090196E8CF4E
:10194000803809F09ECE8091E800877F8093E80080
:1019500080919D028093F10089CE811192CE1091E9
:10196000A002123008F08DCE8091E800877F80932E
:10197000E80010939D020E946A05112351F084E053
:101980008093A60261EC81E00E9490048091A602FF
:1019900078CE8091E30087FDF2CF81E0F1CF8823FC
:1019A00041F0809590919E01892380939E010E9431
:1019B000F5090895882339F090919E01892B809331
:1019C0009E010E94F5090895882391F09CEF980FDD
:1019D000913A78F4EAE6F1E020E731E09281891368
:1019E00001C0128231962E173F07C1F70E94F509F8
:1019F000089590E2980F9830D8F7877021E030E092
:101A0000A90102C0440F551F8A95E2F7CA018095CB
:101A100090919E01892380939E01E8CFCF938823E4
:101A2000B9F0C82F8CEF8C0F813A00F5ACE6B1E02D
:101A3000EAE6F1E08D91C81769F081E0A237B807B6
:101A4000C9F76C2F8AE691E00E94FA050E94F50919
:101A5000CF9108958281C81301C01282319681E02E
:101A6000E037F807B9F70E94F509EBCF80E28C0F59
:101A7000883070F7C77021E030E001C0220FCA95AE
:101A8000EAF780919E01822B80939E01DFCF0F9316
:101A90001F93CF93DF938C018091A602843059F578
:101AA00081E08093E9008FEF9091E800815095FDEF
:101AB00006C095ED9A95F1F700008111F5CF809160
:101AC000E80085FF18C00E943B0581110FC0C8E0E7
:101AD000D0E08091E80085FD13C08091E8008E770A
:101AE0008093E8000E943B05882399F38091E800E9
:101AF0008E778093E800DF91CF911F910F91089529
:101B0000F80181918F018093F100219711F7EECFB9
:101B1000CF93DF93EC010E94470D88E0FE01A3E91B
:101B2000B2E001900D928A95E1F7DF91CF9108958F
:101B30000E941C0A2FEF84E39CE0215080409040DB
:101B4000E1F700C0000088E19AE00FB6F894A8958C
:101B5000809360000FBE90936000FFCFAB0124E63E
:101B600030E0BC0188E70E94FA1821E0892B09F0D7
:101B700020E0822F08958091870290918802911130
:101B800003C091E089270895882369F062E070E03E
:101B900081ED92E00E94AE0D811103C08091870219
:101BA00008951092870280918702EBCFCF93C09166
:101BB0008702809188028823D1F00E94EE05605A46
:101BC00075418F4F9F4F609383027093840280937F
:101BD000850290938602C11108C062E070E08FEC2C
:101BE00092E00E94AE0D811105C0C09187028C2F3A
:101BF000CF91089581E080938702F7CF1F920F92D3
:101C00000FB60F9211242F933F934F935F936F93CF
:101C10007F938F939F93AF93BF93CF93EF93FF9354
:101C2000C091E900CF708091EC001092E9008091A2
:101C3000F000877F8093F00078940E942A0A109227
:101C4000E9008091F00088608093F000C093E90083
:101C5000FF91EF91CF91BF91AF919F918F917F9124
:101C60006F915F914F913F912F910F900FBE0F9009
:101C70001F9018951F920F920FB60F9211242F9359
:101C80003F934F935F936F937F938F939F93AF9304
:101C9000BF93EF93FF938091E10082FF09C0809191
:101CA000E20082FF05C08091E1008B7F8093E1001C
:101CB0008091DA0080FF24C08091D80080FF20C08E
:101CC0008091DA008E7F8093DA008091D90080FFC6
:101CD0009AC080E189BD82E189BD09B400FEFDCFD3
:101CE00081E08093A60280919002811109C00E9438
:101CF000C2040E94E1048091E20084608093E200CB
:101D00008091E10080FF17C08091E20080FF13C046
:101D10008091E2008E7F8093E2008091E2008061FA
:101D20008093E2008091D80080628093D80019BC33
:101D300085E08093A6028091E10084FF29C0809114
:101D4000E20084FF25C080E189BD82E189BD09B43C
:101D500000FEFDCF8091D8008F7D8093D8008091C8
:101D6000E1008F7E8093E1008091E2008F7E80937E
:101D7000E2008091E20081608093E20080919D0208
:101D8000882309F446C084E08093A6028091A602CD
:101D90008091E10083FF26C08091E20083FF22C092
:101DA0008091E100877F8093E10082E08093A6022A
:101DB00010929D028091E1008E7F8093E1008091DE
:101DC000E2008E7F8093E2008091E2008061809348
:101DD000E20060E080E00E9490048091F000886062
:101DE0008093F000FF91EF91BF91AF919F918F9100
:101DF0007F916F915F914F913F912F910F900FBE07
:101E00000F901F90189519BC1092A6021092900284
:101E100077CF8091E30087FD02C081E0B5CF83E0FA
:101E2000B3CF78941F920F920FB60F9211248F9315
:101E30009F93AF93BF9380918C0290918D02A0915C
:101E40008E02B0918F020196A11DB11D80938C026C
:101E500090938D02A0938E02B0938F02BF91AF91A9
:101E60009F918F910F900FBE0F901F9018959C011E
:101E70004FB7F89480918C0290918D02A0918E02C0
:101E8000B0918F024FBF821B930B08952FB7F89428
:101E900080918C0290918D02A0918E02B0918F0260
:101EA0002FBF08950F931F93CF93DF93C62FD42F87
:101EB000122FFC0185818823A9F06093A9020E945A
:101EC000460F9093A8028093A702C77081E001C0DB
:101ED000880FCA95EAF70E94DA0CDF91CF911F9123
:101EE0000F9108958091A902681335C08091A702CF
:101EF0009091A8020E94370F883C910560F500E29E
:101F00000D0FCD17B9F080E28C0F883040F4C77008
:101F100081E001C0880FCA95EAF70E94CF0C083013
:101F200008F581E09D2F977001C0880F9A95EAF718
:101F30000E94DA0C812F0E940E0D812F0E94E40C6A
:101F4000083058F6D77081E001C0880FDA95EAF7BB
:101F50000E94CF0CC2CFC77081E001C0880FCA9524
:101F6000EAF7F6CF812F0E940E0D812F0E94E40C1C
:101F7000B4CF4F925F927F928F929F92AF92BF9217
:101F8000CF92DF92EF92FF920F931F93CF93DF9345
:101F9000CDB7DEB72E970FB6F894DEBF0FBECDBF1C
:101FA0008E010F5F1F4F8EE0F80111928A95E9F7BD
:101FB0002EE4E22E21E0F22E39E5832E31E0932E3D
:101FC000CC24C394D12CAA24A394B12CF7018191E1
:101FD0007F018F3F09F44FC0F894E82FE295EF702E
:101FE000F0E021A18F70A50102C0440F551F8A9512
:101FF000E2F7CA01922F982B91A392A18095892391
:1020000082A3789400C099E5492E91E0592ED80119
:10201000B60160957095F20171902F018D919D919F
:10202000AD0142505109FFEF7F1609F45CC0272D26
:1020300022952F7030E0F90120A130E0F72DFF70DC
:1020400002C035952795FA95E2F720FD4CC08C2902
:102050009D29FA0191838083F0E64F16F1E05F0637
:10206000D1F6F701319780818F3F11F00E9423064E
:1020700020EA2A95F1F7CC0CDD1C8E149F0409F0A0
:10208000A5CF4EE050E0B8018CEA91E00E94421AE0
:10209000892B71F18EE0F801ACEAB1E001900D926C
:1020A0008A95E1F781E08093AB010E94460F9093FF
:1020B000AA018093A90110E0812F2E960FB6F89403
:1020C000DEBF0FBECDBFDF91CF911F910F91FF906B
:1020D000EF90DF90CF90BF90AF909F908F907F90C8
:1020E0005F904F90089586239723B3CF10E01FC0D1
:1020F0001091AB011123F9F28091A9019091AA01ED
:102100000E94370F0597B8F24EE050E06CEA71E09C
:1021100080EC91E00E94421A892B41F38EE0ECEAB8
:10212000F1E0A0ECB1E001900D928A95E1F71092F8
:10213000AB01C2CF80915F028F30C1F058F4882389
:1021400099F08A30B9F00E94460F90935E02809316
:102150005D020895893161F08E31B9F0843199F7CB
:102160008EE180935F02EFCF0E941F098AE0F9CFD2
:1021700084E1F7CF0E941F09EDEDF1E080E8DF0177
:102180001D928A95E9F78FE0ECCF88E2EACFACE0C8
:10219000B0E0EDECF0E10C94AB194F835887698700
:1021A0007A878B879C87911110929D0186E0FE01B2
:1021B0003796DE01119601900D928A95E1F78D8197
:1021C000882341F021E049815A816B817C819E8185
:1021D0000E94FA088D81882371F121E049815A819A
:1021E0006B817C819E810E94FA088C0180915F0244
:1021F000843111F08A30A1F58E81882389F10A3269
:10220000110589F4809172019091730118161906D5
:10221000CCF4FC01E352FE4F1082019790937301BE
:102220008093720108C00832110519F007311105B9
:1022300031F40E949A102C96E5E00C94C7190C33E7
:102240001105C8F78091720190917301DC01A352CE
:10225000BE4FF801EE5EFE4F20812C930196DECF3B
:10226000F801E851FC47E730F10550F5E65CFE4E19
:102270000C943C1A4D11511141114911551159112C
:102280005D1126E241EE61EECE0101960E94520FF1
:10229000D2CF27E245EE65EEF7CF26E241EE60EEC3
:1022A000F3CF27E245EE64EEEFCF26E241EE62EE99
:1022B000EBCF27E245EE66EEE7CF28E241E0EBCF39
:1022C0008E81882309F487C21092A90298013057A1
:1022D0002332310508F067C284E090E00E94E619DD
:1022E0009093BF018093BE01F801E150F047E232C4
:1022F000F10508F026C0E158FE4E0C943C1ADB11A3
:102300005012E311AD11B111E711B511EB11F71135
:10231000C1114912C511FB11C911FF112712CD11AD
:1023200003122E12D31109121112B911EF11BD119E
:10233000F311D7110D121D1237124712A711DF1119
:1023400057128091BE0181608093BE0195C080913B
:10235000BF0188608093BF018FC08091BE01826001
:10236000F3CF8091BE018460EFCF8091BE01886081
:10237000EBCF8091BF018160EDCF8091BF01826082
:10238000E9CF8091BE018061DFCF8091BE01806284
:10239000DBCF8091BE018064D7CF0E941C0A809160
:1023A000BE018068D1CF8091BE018860DCCF809172
:1023B000BF018260E0CF8091BE018E7FC5CF80914A
:1023C000BF01877FC7CF8091BE018D7FBDCF809138
:1023D000BE018B7FB9CF8091BE01877FB5CF809141
:1023E000BF018E7FB7CF8091BF018D7FB3CF80912A
:1023F000BE018F7EA9CF8091BE018F7DA5CF809138
:10240000BE018F7BA1CF0E941C0A8091BE018F77F5
:102410009BCF8091BE01877FDCCF8091BF018D7FF4
:10242000E0CF8091BE0182FB992790F921E09227AD
:1024300090FB82F990FB83F987CF8091BF01982FA1
:10244000909591708E7F892B90FB81F983CF90912D
:10245000BE01892F8F7B96FF806476CF0E941C0A75
:102460009091BE01892F97FB87F980586DCF61E06D
:102470008EE090E00E94FC196091BE017091BF0156
:1024800084E090E00E941A1A0E941C0AD4CE60E0F8
:10249000EFCF9091BE01892F8F7E94FF806154CF42
:1024A0009091BE01892F8E7F90FF81604DCF9091DA
:1024B000BF01892F877F93FF88604CCF89E2EAE6CE
:1024C000F1E09281891301C01282319621E0E03758
:1024D000F207B9F77DC101304CE7140751F1033021
:1024E0005CE7150701F101151C4709F078C10E944E
:1024F0001C0A2FEF44E35CE0215040405040E1F7DC
:1025000000C0000087E797E79093010880930008D8
:1025100088E19AE00FB6F894A895809360000FBE0A
:1025200090936000FFCF6FEF7FEF90E080E00E941C
:102530001A1A0E94980DC8010E946508F82E5CC105
:10254000093009F4E8C00C3008F06AC182EF1817AE
:1025500009F4F2C043EF141709F4F6C051EF151354
:1025600005C1892F8F71222309F4EBC00E94E50871
:1025700057C1092F0F70907F11F00295007F812FB6
:10258000222311F1002369F090E2910F983010F0AE
:10259000111114C080919E01082B00939E010E948E
:1025A000F509812F0E940E0D20E049815A816B812F
:1025B0007C818D819E810E94FA083DCE80919D0193
:1025C000082B00939D01EBCF0E94E40C002361F3E4
:1025D0000095105E183010F0F11008C080919E0137
:1025E000082300939E010E94F509DECF80919D0192
:1025F000082300939D01F7CF892F837009F044C011
:1026000021112FC0812F829586958770880F880FA2
:10261000212F2F7030E0082E02C0220F331F0A94A2
:10262000E2F750E040E014FF09C04FE050E002C084
:10263000440F551F8A95E2F74095509596959695CB
:1026400093709230B9F090F46091BA017091BB012F
:10265000913051F0C901842B952B862397230E943A
:10266000F5080E941406A0CF262B372BC901842B16
:10267000952BF5CFC901842B952B2091BA01309170
:10268000BB0182279327EBCF8695222311F0892F58
:102690008170882331F3812F829586958770880F0A
:1026A000880F212F2F7030E0082E02C0220F331F19
:1026B0000A94E2F750E040E014FF09C04FE050E018
:1026C00002C0440F551F8A95E2F7409550959695A4
:1026D000969593709230A9F080F46091BC0170914E
:1026E000BD01913041F0C901842B952B862397239E
:1026F0000E94CE08B6CF262B372BC901842B952BF1
:10270000F7CFC901842B952B2091BC013091BD01DD
:1027100082279327EDCF092F0F70222339F0802FC6
:102720000E94E508812F0E94DA0C9BCF0E94CF0CFB
:10273000802F0E94D30895CF892F8F71222309F40F
:1027400015CF0E94D3086CC0222369F09F7121E04D
:1027500030E0A90102C0440F551F9A95E2F7CA0163
:102760000E94CE085DC090E080E0FACF222321F0E5
:10277000812F0E940E0D54C059E3151309C08FEF2D
:1027800097EE23E0815090402040E1F700C0000028
:10279000812F0E94E40C44C080917401882309F4C5
:1027A0008DCE85E38CCE06314CE7140709F093CE2D
:1027B00080919E018A7A91E009F490E090937401EF
:1027C00065E3811101C069E28AE691E00E94FA05A1
:1027D0000E94F50930CD06315CE71507E9F2098161
:1027E0001A81882309F4A7CEC8010E943108F82E67
:1027F000682FC8010E949808B8018F2D0E942D07EC
:102800000E944B07182FF82E2E81092F02950F706A
:10281000083009F4F1CE08F093CE023008F4A9CEC6
:102820000850023008F0C0CE1CCFA6E0B0E0EBE1CB
:10283000F4E10C94AC190E94460F8C018091A70121
:102840009091A8018017910781F019821A820E9445
:10285000460F682F49815A81792F80E090E00E94CD
:10286000C7101093A8010093A7012696E4E00C94EA
:10287000C8191F920F920FB60F9211248F939F9336
:10288000AF93BF9380918B02811113C080918C0212
:1028900090918D02A0918E02B0918F024196A11D60
:1028A000B11D80938C0290938D02A0938E02B09301
:1028B0008F02BF91AF919F918F910F900FBE0F909C
:1028C0001F901895AAE0B0E0E8E6F4E10C949E1998
:1028D00085B7806885BF85B7806885BF84B7877FE7
:1028E00084BF0FB6F894A8958091600088618093AA
:1028F0006000109260000FBE80E890E00FB6F89480
:1029000080936100909361000FBE81E296E0909306
:102910006901809368010E94C2040E94E1048091D1
:10292000E20084608093E20078948091A60288237C
:1029300099F01091E9001F708091EC0080FF66C152
:1029400080E8182B1092E9008091E80083FD0E9436
:102950002A0A1F701093E90082E084BD93E095BDC0
:102960009AEF97BD80936E000EE411E0D8018D912F
:102970008D018F3F11F00E942306B1E009351B073E
:10298000A9F709E511E0B0E6EB2EB1E0FB2EF80166
:1029900081918F018F3F11F00E942306E016F1060E
:1029A000B1F78EE0E0ECF1E0DF01282F1D922A95CF
:1029B000E9F7ECEAF1E0DF011D928A95E9F790E092
:1029C00080E00E94E619853E9E4F09F461C065EEE5
:1029D0007EEF90E080E00E941A1A60E082E090E0D2
:1029E0000E94FC1981E090E09093BB018093BA01B2
:1029F00061E083E090E00E94FC1960E074E184E013
:102A000090E00E941A1A60E086E090E00E94FC19B3
:102A100060E087E090E00E94FC1940E050E0BA01DD
:102A200088E090E00E940E1A60E083E290E00E944D
:102A3000FC1960E08CE090E00E94FC1960E08DE001
:102A400090E00E94FC1919821A821B821C821D824E
:102A50001E821F82188648E050E067E170E0CE01D8
:102A600001960E94EC1940E050E0BA018FE190E03D
:102A70000E940E1A40E050E0BA018FE090E00E9400
:102A80000E1A40E050E0BA0183E190E00E940E1A75
:102A900082E090E00E94DE198093CE0184E090E015
:102AA0000E94E6199093BF018093BE0183E090E0FD
:102AB0000E94DE1990E00E94F5080E94460F909354
:102AC0005E0280935D021092800280E88093AA02E9
:102AD0000E9482186BE070E087EF91E00E94AE0DDB
:102AE000882359F18091800265E070E081FD90C0FB
:102AF00082EF91E00E94AE0D8823F9F06DE070E066
:102B000080EE91E00E94AE0D8823B9F00E94EE05A0
:102B1000605A75418F4F9F4F609383027093840278
:102B200080938502909386020E941F0981E0809322
:102B30008802809387021092810280E091E0909356
:102B40008A0280938902A0E46A2E8091A60212E193
:102B5000853009F49BC00E94B90FEFECAE2EE1E086
:102B6000BE2EF0EC8F2EF1E09F2E4DED51E0D40102
:102B7000F501219131918D919D914E175F0709F4D7
:102B80008FC028173907A9F3712C44244394D4012A
:102B90000D911D914D01F501C190D1905F01C016BD
:102BA000D10659F1512CEE24E394F12CC026D12604
:102BB000C6018E219F21892BB1F059827A820E9411
:102BC000460F9C838B834D8291E097012023312314
:102BD000232B09F490E09E8349815A816B817C818B
:102BE0008D810E94C7105394EE0CFF1CFBE05F1216
:102BF000DFCFF501329711830083739427E07212BF
:102C0000C6CF0E94EE05DD24D39451C080E099CE5A
:102C10008DEE91E06FCF8091A602843029F10E9461
:102C2000BB0D10928B02E8E1F0E00FB6F894A89586
:102C3000E09360000FBE6092600083B7817F846084
:102C400083BF83B7816083BF7894889583B78E7F75
:102C500083BF0FB6F894A895809160008861809337
:102C60006000109260000FBE80919C02882371F07A
:102C70000E94B90FE0ECF1E081919191892B09F06C
:102C8000DFC18EEC91E08E179F07B1F78091A6020D
:102C9000853009F4C0CF0E941C0A0E9414065BCF45
:102CA0002817390709F070CF0E941514D12C809194
:102CB0008802882309F49CC18DEA92E09093B404C1
:102CC0008093B30480915F028F3009F47CC0A0F53B
:102CD000882309F445C08A3009F457C08091AB02BB
:102CE0009091AC02892B09F46AC1809188028823F3
:102CF00009F465C180918102811161C10E94D60DE4
:102D00002091AB023091AC022115310509F457C175
:102D100080E041E050E0082F10E07A01082E02C068
:102D2000EE0CFF1C0A94E2F7B70162237323672BB2
:102D300009F0A9C08F5FEFCF893109F469C08832EB
:102D400009F479C0843151F682E092E00E94B5091D
:102D50008AEA92E00E94B50981E00E94C309BECFD1
:102D600082E092E00E94B5098AEB92E00E94B509E8
:102D700080915D0290915E020E94370F893B9B40DB
:102D800008F4ACCF0E949A10A9CF87E992E00E9484
:102D9000B50981E00E94C30985E892E00E94B50967
:102DA00081E00E94C3090DED11E0F2E00D351F072F
:102DB00009F494CFF80181918F018823B1F38AE25D
:102DC0000E943409F2CF0E941F098FE692E00E9410
:102DD000B50981E00E94C3090DED11E05DE5E52E26
:102DE00052E0F52EE016F10659F480915D029091C3
:102DF0005E020E94370F893B9B4008F46FCFC2CF21
:102E0000D8018D918D01882369F30E943409EACF9E
:102E100082E092E00E94B50983E592E00E94B50944
:102E200080915D0290915E020E94370F893B9B402A
:102E300008F454CFA7CF86E492E00E94B5098091B0
:102E40005D0290915E020E94370F68EB7BE00E946A
:102E50008A19893E934020F084E492E00E94B509EB
:102E600080915D0290915E020E94370F68EB7BE0DB
:102E70000E948A19813D974008F430CF82E492E0A5
:102E80000E94B5092BCF9091800290FFC0C0880F9F
:102E9000880F880F80930C0110920F01895F809337
:102EA0000D0183E08093100124E630E047E050E01C
:102EB0006AE071E088E70E94B618892B09F07FC0AC
:102EC000A80195E0440F551F9A95E1F78091800283
:102ED00080FFAFC0E0E6F2E080E2DF011D928A955C
:102EE000E9F7E4E6F1E0FA87E98700E611E088E631
:102EF000282E81E0382E88248394A985BA852D91C7
:102F0000BA87A987F80141908F01440E552E511CB4
:102F1000C20183559D4F2C0130E0205A3D4FF901ED
:102F200097E0BF01621B730B982C01C0990C6A9546
:102F3000EAF75201C12CD5018D915D018921692FDC
:102F40006C196770762E062E000C770BB82F01C017
:102F5000BB0F7A94EAF77B2E7195619571096770C2
:102F6000772701C086956A95EAF7782A8081782AC2
:102F70007082C39488E0C812DECF915031969F3F93
:102F800081F6A985BA852A163B0609F0B6CF04E674
:102F900010E020E230E040E652E060E488E70E9482
:102FA0004019892B61F4E094F0948091AB029091E8
:102FB000AC02E822F922F092AC02E092AB028091DE
:102FC00087028823A9F00E94EE05009183021091E8
:102FD00084022091850230918602601B710B820B66
:102FE000930B6F3F7F4F8F4F9F4710F40E94BB0D95
:102FF000D1100E94D60D0E9414069091820289176A
:1030000009F4A3CD809382020E94EE059ECD8295A5
:10301000880F807680930C01980136952795369518
:10302000279520930F01815E80930D01209310015D
:103030003BCF43555D4F04E610E020E230E0ADCFDA
:10304000E0E1E9BD19BD09B400FEFDCF8091D800D3
:103050008F7D8093D8008091E00082608093E000B3
:103060008091E00081FDFCCF0E941C0A0FCEEF9200
:10307000FF920F931F93CF93DF93182FEB011092C2
:10308000BC0084EA8093BC000E94460F7C018091C2
:10309000BC0087FF0DC08091B900887F8830A9F0FF
:1030A0008091B900887F803181F08FEF9FEF08C059
:1030B000C7010E94370FC817D90748F78EEF9FEF57
:1030C000CDB7DEB7E6E00C94C6191093BB0084E8D8
:1030D0008093BC000E94460F8C018091BC0087FF4A
:1030E0000AC08091B900887F883111F08034E9F6F8
:1030F00090E080E0E5CFC8010E94370FC817D907DC
:1031000060F7DCCF1092B9008CE08093B80008958E
:103110000F931F93CF93DF93EB018093BB0084E861
:103120008093BC000E94460F8C018091BC0087FFF9
:1031300011C02091B900287F81E090E0283211F47D
:1031400090E080E0919581959109DF91CF911F9159
:103150000F910895CF3FDC0741F3C8010E94370F5C
:10316000C817D90710F78EEF9FEFEFCFB0E0A0E0C0
:10317000ECEBF8E10C94A319782E5B016A0189014C
:103180000E94460F4C01C1E0D0E00431110558F017
:10319000C5E0D0E00F3F100731F0C80164E170E0F6
:1031A0000E948A19EB01BE01872D0E9437187C010D
:1031B00097FF09C00F3F1007B1F3C4010E94370FFA
:1031C0000817190780F7E501CA0CDB1CCC15DD05D3
:1031D00011F0F7FE09C084E98093BC00C701CDB7A8
:1031E000DEB7EDE00C94BF19B80189910E948818F0
:1031F0007C01ECCFB0E0A0E0E0E0F9E10C94A31991
:10320000782E5B016A0189010E94460F4C01C1E0E2
:10321000D0E00431110558F0C5E0D0E00F3F1007B1
:1032200031F0C80164E170E00E948A19EB01BE012F
:10323000872D0E9437187C0197FF09C00F3F1007A8
:10324000B1F3C4010E94370F0817190780F7E50191
:10325000CA0CDB1CCC15DD0511F0F7FE09C084E9B2
:103260008093BC00C701CDB7DEB7EDE00C94BF1969
:10327000FE018491B8010E9488187C012196EACF52
:10328000B0E0A0E0E6E4F9E10C94A219682E762EF5
:103290005A0169010E94460F4C01C1E0D0E004319F
:1032A000110558F0C5E0D0E00F3F100731F0C8011C
:1032B00064E170E00E948A19EB01BE01862D0E9434
:1032C00037187C0197FF1DC00F3F1007B1F3C401F1
:1032D0000E94370F0817190780F784E98093BC0014
:1032E000C701CDB7DEB7EEE00C94BE19B8018991E5
:1032F0000E9488187C01CC16DD0679F3F7FEF6CF24
:10330000ECCFB801872D0E9488187C01E501CA0C1A
:10331000DB1CF1CFAA1BBB1B51E107C0AA1FBB1FBF
:10332000A617B70710F0A61BB70B881F991F5A9551
:10333000A9F780959095BC01CD0108952F923F92F9
:103340004F925F926F927F928F929F92AF92BF92B5
:10335000CF92DF92EF92FF920F931F93CF93DF9361
:10336000CDB7DEB7CA1BDB0B0FB6F894DEBF0FBEBE
:10337000CDBF09942A88398848885F846E847D840B
:103380008C849B84AA84B984C884DF80EE80FD800D
:103390000C811B81AA81B981CE0FD11D0FB6F89483
:1033A000DEBF0FBECDBFED010895FB01DC0102C001
:1033B00005900D9241505040D8F70895F999FECFED
:1033C00092BD81BDF89A992780B50895A8E1B0E033
:1033D00042E050E00C94221ADC01A40FB51F4150CA
:1033E000504048F0CB01840F951F2E910E94FD198B
:1033F00041505040D0F70895262FF999FECF92BD45
:1034000081BDF89A019700B4021639F01FBA20BDA9
:103410000FB6F894FA9AF99A0FBE08950396272FDB
:103420000E94FD190E94FC19252F0E94FD19242FCE
:103430000C94FD190196272F0E94FD190C94FC197C
:10344000DC01CB01FC01F999FECF06C0F2BDE1BD64
:10345000F89A319600B40D9241505040B8F7089553
:10346000991B79E004C0991F961708F0961B881FD6
:103470007A95C9F780950895EE0FFF1F0590F49196
:10348000E02D0994FB01DC0104C08D9101908019AD
:1034900021F441505040C8F7881B990B0895F894C7
:0234A000FFCF5C
:1034A200EB05880DE805EA05E9050021007F220009
:1034B2000301202020206162636465666768696A8F
:1034C2006B6C6D6E6F707172737475767778797AD2
:1034D2003132333435363738393052454254202070
:1034E20020202020203B27202C2E2F202020C267A6
:1034F200663635349796943793F0F1F4F5F6F7C6BD
:08350200000810181810080061
:00000001FF
